{
  "contractName": "gamePlayer",
  "abi": [
    {
      "inputs": [],
      "stateMutability": "nonpayable",
      "type": "constructor"
    },
    {
      "anonymous": false,
      "inputs": [
        {
          "indexed": true,
          "internalType": "address",
          "name": "_player",
          "type": "address"
        },
        {
          "indexed": true,
          "internalType": "uint256",
          "name": "_playerId",
          "type": "uint256"
        }
      ],
      "name": "NewPlayer",
      "type": "event"
    },
    {
      "inputs": [
        {
          "internalType": "address",
          "name": "",
          "type": "address"
        }
      ],
      "name": "player",
      "outputs": [
        {
          "internalType": "address payable",
          "name": "wallet",
          "type": "address"
        },
        {
          "internalType": "uint256",
          "name": "playerId",
          "type": "uint256"
        },
        {
          "internalType": "uint256",
          "name": "balance",
          "type": "uint256"
        },
        {
          "internalType": "uint256",
          "name": "placedBets",
          "type": "uint256"
        },
        {
          "internalType": "bool",
          "name": "isPlayer",
          "type": "bool"
        }
      ],
      "stateMutability": "view",
      "type": "function",
      "constant": true
    }
  ],
  "bytecode": "0x608060405234801561001057600080fd5b5061016d806100206000396000f3fe608060405234801561001057600080fd5b506004361061002b5760003560e01c80634c54e1b514610030575b600080fd5b6100726004803603602081101561004657600080fd5b81019080803573ffffffffffffffffffffffffffffffffffffffff1690602001909291905050506100d4565b604051808673ffffffffffffffffffffffffffffffffffffffff1673ffffffffffffffffffffffffffffffffffffffff168152602001858152602001848152602001838152602001821515151581526020019550505050505060405180910390f35b60016020528060005260406000206000915090508060000160009054906101000a900473ffffffffffffffffffffffffffffffffffffffff16908060010154908060020154908060030154908060040160009054906101000a900460ff1690508556fea26469706673582212209e30024203167ea32edcf76b99a0c6b374c0e9a5a3b86d8a80ba64dbaaf09fdc64736f6c63430006060033",
  "immutableReferences": {},
  "source": "pragma solidity >=0.6.2 <0.8.0;\n//SPDX-License-Identifier: UNLICENSED\n\n/**\n * @title Player Registry contract.\n * @author Macccs Universal\n * @notice This contract contains the criteria that makes up a new player\n * and outlines how new players are initiated and stored.\n * @dev All function calls are currently implemented without side effects.\n */\n\ncontract gamePlayer {\n\n  // A struct type that defines state variables of a player.\n  struct Player{\n      address payable wallet;\n      uint playerId;\n      uint balance;\n      uint placedBets;\n      bool isPlayer;\n  }\n\n  uint internal playerCount;\n\n  /**\n   * @notice map/list of player addresses.\n   */\n  mapping (address => Player) public player;\n\n  /**\n   * @notice new player event.\n   * @dev Event is triggered by the regisration of a new player. \n   * @param _player is the address of new player.\n   * @param _playerId uint that represents player as a number.\n   */\n  event NewPlayer(address indexed _player, uint indexed _playerId);\n  \n  constructor() public {}\n\n  /**@notice creates and registers a new player.\n   * @dev Not sure we actually need the the struct variable playerId\n   * but I've included it for future reference.\n   */\n  function newPlayer() internal{\n    player[msg.sender] = Player(msg.sender, playerCount, 0, 0, true);\n    emit NewPlayer(msg.sender,playerCount);\n    playerCount++;\n  }\n\n}",
  "sourcePath": "/home/moses/Desktop/Lucky Ducky/contracts/Player.sol",
  "compiler": {
    "name": "solc",
    "version": "0.6.6+commit.6c089d02.Emscripten.clang"
  },
  "schemaVersion": "3.3.3",
  "updatedAt": "2021-06-18T20:35:58.323Z",
  "networkType": "ethereum",
  "devdoc": {
    "author": "Macccs Universal",
    "details": "All function calls are currently implemented without side effects.",
    "methods": {},
    "title": "Player Registry contract."
  },
  "userdoc": {
    "methods": {},
    "notice": "This contract contains the criteria that makes up a new player and outlines how new players are initiated and stored."
  }
}