{
  "contractName": "GuessingGame",
  "abi": [
    {
      "inputs": [
        {
          "internalType": "address",
          "name": "_linkTokenAddress",
          "type": "address"
        },
        {
          "internalType": "bytes32",
          "name": "_keyHash",
          "type": "bytes32"
        },
        {
          "internalType": "address",
          "name": "_vrfCoordinatorAddress",
          "type": "address"
        },
        {
          "internalType": "uint256",
          "name": "_fee",
          "type": "uint256"
        }
      ],
      "stateMutability": "nonpayable",
      "type": "constructor"
    },
    {
      "anonymous": false,
      "inputs": [
        {
          "indexed": true,
          "internalType": "address",
          "name": "_player",
          "type": "address"
        },
        {
          "indexed": true,
          "internalType": "uint256",
          "name": "_Id",
          "type": "uint256"
        },
        {
          "indexed": true,
          "internalType": "uint256",
          "name": "_amount",
          "type": "uint256"
        }
      ],
      "name": "BetPlaced",
      "type": "event"
    },
    {
      "anonymous": false,
      "inputs": [
        {
          "indexed": true,
          "internalType": "address",
          "name": "_player",
          "type": "address"
        },
        {
          "indexed": true,
          "internalType": "uint256",
          "name": "_Id",
          "type": "uint256"
        },
        {
          "indexed": true,
          "internalType": "uint256",
          "name": "_amount",
          "type": "uint256"
        }
      ],
      "name": "Deposit",
      "type": "event"
    },
    {
      "anonymous": false,
      "inputs": [
        {
          "indexed": true,
          "internalType": "bool",
          "name": "_on",
          "type": "bool"
        },
        {
          "indexed": true,
          "internalType": "bool",
          "name": "_off",
          "type": "bool"
        }
      ],
      "name": "DepositBreaker",
      "type": "event"
    },
    {
      "anonymous": false,
      "inputs": [
        {
          "indexed": true,
          "internalType": "address",
          "name": "_player",
          "type": "address"
        },
        {
          "indexed": true,
          "internalType": "uint256",
          "name": "_guess",
          "type": "uint256"
        }
      ],
      "name": "Guess",
      "type": "event"
    },
    {
      "anonymous": false,
      "inputs": [
        {
          "indexed": true,
          "internalType": "address",
          "name": "_player",
          "type": "address"
        },
        {
          "indexed": true,
          "internalType": "uint256",
          "name": "_playerId",
          "type": "uint256"
        }
      ],
      "name": "NewPlayer",
      "type": "event"
    },
    {
      "anonymous": false,
      "inputs": [
        {
          "indexed": false,
          "internalType": "bytes32",
          "name": "_requestId",
          "type": "bytes32"
        }
      ],
      "name": "RequestedRandomness",
      "type": "event"
    },
    {
      "anonymous": false,
      "inputs": [
        {
          "indexed": true,
          "internalType": "address",
          "name": "_player",
          "type": "address"
        },
        {
          "indexed": true,
          "internalType": "bool",
          "name": "_winner",
          "type": "bool"
        },
        {
          "indexed": true,
          "internalType": "uint256",
          "name": "_guess",
          "type": "uint256"
        },
        {
          "indexed": false,
          "internalType": "uint256",
          "name": "_winningNo",
          "type": "uint256"
        }
      ],
      "name": "Result",
      "type": "event"
    },
    {
      "anonymous": false,
      "inputs": [
        {
          "indexed": true,
          "internalType": "address",
          "name": "_player",
          "type": "address"
        },
        {
          "indexed": true,
          "internalType": "uint256",
          "name": "_rewardClaimed",
          "type": "uint256"
        },
        {
          "indexed": true,
          "internalType": "uint256",
          "name": "_newBalance",
          "type": "uint256"
        }
      ],
      "name": "RewardClaimed",
      "type": "event"
    },
    {
      "anonymous": false,
      "inputs": [
        {
          "indexed": true,
          "internalType": "address",
          "name": "_player",
          "type": "address"
        },
        {
          "indexed": true,
          "internalType": "uint256",
          "name": "_Id",
          "type": "uint256"
        },
        {
          "indexed": true,
          "internalType": "uint256",
          "name": "_amount",
          "type": "uint256"
        }
      ],
      "name": "UndoneBets",
      "type": "event"
    },
    {
      "anonymous": false,
      "inputs": [
        {
          "indexed": true,
          "internalType": "address",
          "name": "_player",
          "type": "address"
        },
        {
          "indexed": true,
          "internalType": "uint256",
          "name": "_Id",
          "type": "uint256"
        },
        {
          "indexed": true,
          "internalType": "uint256",
          "name": "_amount",
          "type": "uint256"
        }
      ],
      "name": "Withdraw",
      "type": "event"
    },
    {
      "anonymous": false,
      "inputs": [
        {
          "indexed": true,
          "internalType": "bool",
          "name": "_on",
          "type": "bool"
        },
        {
          "indexed": true,
          "internalType": "bool",
          "name": "_off",
          "type": "bool"
        }
      ],
      "name": "WithdrawalBreaker",
      "type": "event"
    },
    {
      "stateMutability": "payable",
      "type": "fallback",
      "payable": true
    },
    {
      "inputs": [],
      "name": "deposit",
      "outputs": [],
      "stateMutability": "payable",
      "type": "function",
      "payable": true
    },
    {
      "inputs": [],
      "name": "depositsCircuitBreaker",
      "outputs": [],
      "stateMutability": "nonpayable",
      "type": "function"
    },
    {
      "inputs": [],
      "name": "destroy",
      "outputs": [],
      "stateMutability": "nonpayable",
      "type": "function"
    },
    {
      "inputs": [
        {
          "internalType": "address",
          "name": "",
          "type": "address"
        },
        {
          "internalType": "uint256",
          "name": "",
          "type": "uint256"
        }
      ],
      "name": "gamesLog",
      "outputs": [
        {
          "internalType": "uint256",
          "name": "gameId",
          "type": "uint256"
        },
        {
          "internalType": "uint256",
          "name": "playerGuess",
          "type": "uint256"
        },
        {
          "internalType": "uint256",
          "name": "winningNumber",
          "type": "uint256"
        },
        {
          "internalType": "uint256",
          "name": "betPlaced",
          "type": "uint256"
        },
        {
          "internalType": "uint256",
          "name": "reward",
          "type": "uint256"
        },
        {
          "internalType": "uint32",
          "name": "gamesPlayed",
          "type": "uint32"
        },
        {
          "internalType": "bool",
          "name": "winner",
          "type": "bool"
        },
        {
          "internalType": "bool",
          "name": "claimed",
          "type": "bool"
        }
      ],
      "stateMutability": "view",
      "type": "function",
      "constant": true
    },
    {
      "inputs": [],
      "name": "getBalance",
      "outputs": [
        {
          "internalType": "uint256",
          "name": "",
          "type": "uint256"
        }
      ],
      "stateMutability": "view",
      "type": "function",
      "constant": true
    },
    {
      "inputs": [],
      "name": "getPlayerBalance",
      "outputs": [
        {
          "internalType": "uint256",
          "name": "",
          "type": "uint256"
        }
      ],
      "stateMutability": "view",
      "type": "function",
      "constant": true
    },
    {
      "inputs": [],
      "name": "getPlayerBets",
      "outputs": [
        {
          "internalType": "uint256",
          "name": "",
          "type": "uint256"
        }
      ],
      "stateMutability": "view",
      "type": "function",
      "constant": true
    },
    {
      "inputs": [],
      "name": "owner",
      "outputs": [
        {
          "internalType": "address payable",
          "name": "",
          "type": "address"
        }
      ],
      "stateMutability": "view",
      "type": "function",
      "constant": true
    },
    {
      "inputs": [
        {
          "internalType": "uint256",
          "name": "_amount",
          "type": "uint256"
        }
      ],
      "name": "placeBet",
      "outputs": [],
      "stateMutability": "nonpayable",
      "type": "function"
    },
    {
      "inputs": [
        {
          "internalType": "address",
          "name": "",
          "type": "address"
        }
      ],
      "name": "playCounter",
      "outputs": [
        {
          "internalType": "uint32",
          "name": "",
          "type": "uint32"
        }
      ],
      "stateMutability": "view",
      "type": "function",
      "constant": true
    },
    {
      "inputs": [
        {
          "internalType": "address",
          "name": "",
          "type": "address"
        }
      ],
      "name": "player",
      "outputs": [
        {
          "internalType": "address payable",
          "name": "wallet",
          "type": "address"
        },
        {
          "internalType": "uint256",
          "name": "playerId",
          "type": "uint256"
        },
        {
          "internalType": "uint256",
          "name": "balance",
          "type": "uint256"
        },
        {
          "internalType": "uint256",
          "name": "placedBets",
          "type": "uint256"
        },
        {
          "internalType": "bool",
          "name": "isPlayer",
          "type": "bool"
        }
      ],
      "stateMutability": "view",
      "type": "function",
      "constant": true
    },
    {
      "inputs": [],
      "name": "randomResult",
      "outputs": [
        {
          "internalType": "uint256",
          "name": "",
          "type": "uint256"
        }
      ],
      "stateMutability": "view",
      "type": "function",
      "constant": true
    },
    {
      "inputs": [
        {
          "internalType": "bytes32",
          "name": "requestId",
          "type": "bytes32"
        },
        {
          "internalType": "uint256",
          "name": "randomness",
          "type": "uint256"
        }
      ],
      "name": "rawFulfillRandomness",
      "outputs": [],
      "stateMutability": "nonpayable",
      "type": "function"
    },
    {
      "inputs": [
        {
          "internalType": "uint256",
          "name": "_amount",
          "type": "uint256"
        }
      ],
      "name": "undoBet",
      "outputs": [],
      "stateMutability": "nonpayable",
      "type": "function"
    },
    {
      "inputs": [
        {
          "internalType": "address payable",
          "name": "_to",
          "type": "address"
        }
      ],
      "name": "withdrawAll",
      "outputs": [],
      "stateMutability": "nonpayable",
      "type": "function"
    },
    {
      "inputs": [
        {
          "internalType": "address payable",
          "name": "_to",
          "type": "address"
        },
        {
          "internalType": "uint256",
          "name": "_withdrawalAmount",
          "type": "uint256"
        }
      ],
      "name": "withdrawBalance",
      "outputs": [],
      "stateMutability": "nonpayable",
      "type": "function"
    },
    {
      "inputs": [],
      "name": "withdrawalCircuitBreaker",
      "outputs": [],
      "stateMutability": "nonpayable",
      "type": "function"
    },
    {
      "stateMutability": "payable",
      "type": "receive",
      "payable": true
    },
    {
      "inputs": [],
      "name": "getLinkBalance",
      "outputs": [
        {
          "internalType": "uint256",
          "name": "",
          "type": "uint256"
        }
      ],
      "stateMutability": "view",
      "type": "function",
      "constant": true
    },
    {
      "inputs": [
        {
          "internalType": "uint256",
          "name": "_gameId",
          "type": "uint256"
        },
        {
          "internalType": "uint256",
          "name": "_counter",
          "type": "uint256"
        }
      ],
      "name": "claimReward",
      "outputs": [],
      "stateMutability": "nonpayable",
      "type": "function"
    },
    {
      "inputs": [],
      "name": "getResult",
      "outputs": [
        {
          "internalType": "uint256[]",
          "name": "",
          "type": "uint256[]"
        },
        {
          "internalType": "uint256[]",
          "name": "",
          "type": "uint256[]"
        },
        {
          "internalType": "uint256[]",
          "name": "",
          "type": "uint256[]"
        },
        {
          "internalType": "uint256[]",
          "name": "",
          "type": "uint256[]"
        },
        {
          "internalType": "uint256[]",
          "name": "",
          "type": "uint256[]"
        }
      ],
      "stateMutability": "view",
      "type": "function",
      "constant": true
    },
    {
      "inputs": [],
      "name": "getLogs",
      "outputs": [
        {
          "internalType": "uint256[]",
          "name": "",
          "type": "uint256[]"
        },
        {
          "internalType": "uint256[]",
          "name": "",
          "type": "uint256[]"
        },
        {
          "internalType": "uint256[]",
          "name": "",
          "type": "uint256[]"
        },
        {
          "internalType": "uint256[]",
          "name": "",
          "type": "uint256[]"
        },
        {
          "internalType": "uint256[]",
          "name": "",
          "type": "uint256[]"
        },
        {
          "internalType": "bool[]",
          "name": "",
          "type": "bool[]"
        }
      ],
      "stateMutability": "view",
      "type": "function",
      "constant": true
    },
    {
      "inputs": [
        {
          "internalType": "uint32",
          "name": "_guess",
          "type": "uint32"
        },
        {
          "internalType": "uint256",
          "name": "_bettingAmount",
          "type": "uint256"
        }
      ],
      "name": "playGame",
      "outputs": [],
      "stateMutability": "nonpayable",
      "type": "function"
    }
  ],
  "bytecode": "0x60c06040526000600360006101000a81548160ff0219169083151502179055506001600360016101000a81548160ff0219169083151502179055506001600360026101000a81548160ff02191690831515021790555034801561006157600080fd5b506040516140fd3803806140fd8339818101604052608081101561008457600080fd5b81019080805190602001909291908051906020019092919080519060200190929190805190602001909291905050508184336000806101000a81548173ffffffffffffffffffffffffffffffffffffffff021916908373ffffffffffffffffffffffffffffffffffffffff1602179055508173ffffffffffffffffffffffffffffffffffffffff1660a08173ffffffffffffffffffffffffffffffffffffffff1660601b815250508073ffffffffffffffffffffffffffffffffffffffff1660808173ffffffffffffffffffffffffffffffffffffffff1660601b81525050505082600881905550806009819055505050505060805160601c60a05160601c613f4e6101af60003980611e34528061372552508061106752806118d252806136e95250613f4e6000f3fe6080604052600436106101395760003560e01c806386bb8f37116100ab578063a1da5cbb1161006f578063a1da5cbb14610673578063c18f030d1461068a578063d0e30db0146106a1578063de292789146106ab578063fa09e63014610837578063fe290ccb14610888576101b0565b806386bb8f371461050c5780638a4b1b48146105515780638da5cb5b1461058c578063921a05bd146105e357806394985ddd1461062e576101b0565b806342619f66116100fd57806342619f661461030f57806348a60b6c1461033a5780634c54e1b51461036557806350c5f975146104165780635d86e2871461044157806383197ef0146104f5576101b0565b80630b01517c146101b25780630cf20cc9146101dd57806310fe7c481461023857806312065fe01461027357806322fa20681461029e576101b0565b366101b057343373ffffffffffffffffffffffffffffffffffffffff163110156101ae576040517f08c379a000000000000000000000000000000000000000000000000000000000815260040180806020018281038252602d815260200180613e76602d913960400191505060405180910390fd5b005b005b3480156101be57600080fd5b506101c7610a5c565b6040518082815260200191505060405180910390f35b3480156101e957600080fd5b506102366004803603604081101561020057600080fd5b81019080803573ffffffffffffffffffffffffffffffffffffffff16906020019092919080359060200190929190505050610b06565b005b34801561024457600080fd5b506102716004803603602081101561025b57600080fd5b8101908080359060200190929190505050610d4d565b005b34801561027f57600080fd5b50610288610f25565b6040518082815260200191505060405180910390f35b3480156102aa57600080fd5b506102ed600480360360208110156102c157600080fd5b81019080803573ffffffffffffffffffffffffffffffffffffffff169060200190929190505050610f2d565b604051808263ffffffff1663ffffffff16815260200191505060405180910390f35b34801561031b57600080fd5b50610324610f50565b6040518082815260200191505060405180910390f35b34801561034657600080fd5b5061034f610f56565b6040518082815260200191505060405180910390f35b34801561037157600080fd5b506103b46004803603602081101561038857600080fd5b81019080803573ffffffffffffffffffffffffffffffffffffffff169060200190929190505050611000565b604051808673ffffffffffffffffffffffffffffffffffffffff1673ffffffffffffffffffffffffffffffffffffffff168152602001858152602001848152602001838152602001821515151581526020019550505050505060405180910390f35b34801561042257600080fd5b5061042b611063565b6040518082815260200191505060405180910390f35b34801561044d57600080fd5b5061049a6004803603604081101561046457600080fd5b81019080803573ffffffffffffffffffffffffffffffffffffffff16906020019092919080359060200190929190505050611142565b604051808981526020018881526020018781526020018681526020018581526020018463ffffffff1663ffffffff16815260200183151515158152602001821515151581526020019850505050505050505060405180910390f35b34801561050157600080fd5b5061050a6111c1565b005b34801561051857600080fd5b5061054f6004803603604081101561052f57600080fd5b8101908080359060200190929190803590602001909291905050506112a0565b005b34801561055d57600080fd5b5061058a6004803603602081101561057457600080fd5b810190808035906020019092919050505061166f565b005b34801561059857600080fd5b506105a1611848565b604051808273ffffffffffffffffffffffffffffffffffffffff1673ffffffffffffffffffffffffffffffffffffffff16815260200191505060405180910390f35b3480156105ef57600080fd5b5061062c6004803603604081101561060657600080fd5b81019080803563ffffffff1690602001909291908035906020019092919050505061186d565b005b34801561063a57600080fd5b506106716004803603604081101561065157600080fd5b810190808035906020019092919080359060200190929190505050611e32565b005b34801561067f57600080fd5b50610688611f01565b005b34801561069657600080fd5b5061069f612034565b005b6106a9612167565b005b3480156106b757600080fd5b506106c06122bd565b60405180806020018060200180602001806020018060200186810386528b818151815260200191508051906020019060200280838360005b838110156107135780820151818401526020810190506106f8565b5050505090500186810385528a818151815260200191508051906020019060200280838360005b8381101561075557808201518184015260208101905061073a565b50505050905001868103845289818151815260200191508051906020019060200280838360005b8381101561079757808201518184015260208101905061077c565b50505050905001868103835288818151815260200191508051906020019060200280838360005b838110156107d95780820151818401526020810190506107be565b50505050905001868103825287818151815260200191508051906020019060200280838360005b8381101561081b578082015181840152602081019050610800565b505050509050019a505050505050505050505060405180910390f35b34801561084357600080fd5b506108866004803603602081101561085a57600080fd5b81019080803573ffffffffffffffffffffffffffffffffffffffff169060200190929190505050612756565b005b34801561089457600080fd5b5061089d612a3a565b6040518080602001806020018060200180602001806020018060200187810387528d818151815260200191508051906020019060200280838360005b838110156108f45780820151818401526020810190506108d9565b5050505090500187810386528c818151815260200191508051906020019060200280838360005b8381101561093657808201518184015260208101905061091b565b5050505090500187810385528b818151815260200191508051906020019060200280838360005b8381101561097857808201518184015260208101905061095d565b5050505090500187810384528a818151815260200191508051906020019060200280838360005b838110156109ba57808201518184015260208101905061099f565b50505050905001878103835289818151815260200191508051906020019060200280838360005b838110156109fc5780820151818401526020810190506109e1565b50505050905001878103825288818151815260200191508051906020019060200280838360005b83811015610a3e578082015181840152602081019050610a23565b505050509050019c5050505050505050505050505060405180910390f35b600060011515600260003373ffffffffffffffffffffffffffffffffffffffff1673ffffffffffffffffffffffffffffffffffffffff16815260200190815260200160002060040160009054906101000a900460ff16151514610abe57600080fd5b600260003373ffffffffffffffffffffffffffffffffffffffff1673ffffffffffffffffffffffffffffffffffffffff16815260200190815260200160002060020154905090565b60011515600260003373ffffffffffffffffffffffffffffffffffffffff1673ffffffffffffffffffffffffffffffffffffffff16815260200190815260200160002060040160009054906101000a900460ff16151514610b6657600080fd5b60011515600360029054906101000a900460ff16151514610b8657600080fd5b600360009054906101000a900460ff1615610ba057600080fd5b6000600260003373ffffffffffffffffffffffffffffffffffffffff1673ffffffffffffffffffffffffffffffffffffffff16815260200190815260200160002060020154905081811015610bf457600080fd5b81600260003373ffffffffffffffffffffffffffffffffffffffff1673ffffffffffffffffffffffffffffffffffffffff168152602001908152602001600020600201600082825403925050819055506001600360006101000a81548160ff0219169083151502179055508273ffffffffffffffffffffffffffffffffffffffff166108fc839081150290604051600060405180830381858888f19350505050158015610ca5573d6000803e3d6000fd5b506000600360006101000a81548160ff02191690831515021790555081600260003373ffffffffffffffffffffffffffffffffffffffff1673ffffffffffffffffffffffffffffffffffffffff168152602001908152602001600020600101543373ffffffffffffffffffffffffffffffffffffffff167ff279e6a1f5e320cca91135676d9cb6e44ca8a08c0b88342bcdb1144f6511b56860405160405180910390a4505050565b60011515600260003373ffffffffffffffffffffffffffffffffffffffff1673ffffffffffffffffffffffffffffffffffffffff16815260200190815260200160002060040160009054906101000a900460ff16151514610dad57600080fd5b80600260003373ffffffffffffffffffffffffffffffffffffffff1673ffffffffffffffffffffffffffffffffffffffff168152602001908152602001600020600201541015610dfc57600080fd5b80600260003373ffffffffffffffffffffffffffffffffffffffff1673ffffffffffffffffffffffffffffffffffffffff1681526020019081526020016000206002016000828254039250508190555080600260003373ffffffffffffffffffffffffffffffffffffffff1673ffffffffffffffffffffffffffffffffffffffff1681526020019081526020016000206003016000828254019250508190555080600260003373ffffffffffffffffffffffffffffffffffffffff1673ffffffffffffffffffffffffffffffffffffffff168152602001908152602001600020600101543373ffffffffffffffffffffffffffffffffffffffff167e1ecf1d0c4d22f324b3ecb9cdf0e5f772bc74ac104e6626f4b3845433d0310560405160405180910390a450565b600047905090565b600c6020528060005260406000206000915054906101000a900463ffffffff1681565b600a5481565b600060011515600260003373ffffffffffffffffffffffffffffffffffffffff1673ffffffffffffffffffffffffffffffffffffffff16815260200190815260200160002060040160009054906101000a900460ff16151514610fb857600080fd5b600260003373ffffffffffffffffffffffffffffffffffffffff1673ffffffffffffffffffffffffffffffffffffffff16815260200190815260200160002060030154905090565b60026020528060005260406000206000915090508060000160009054906101000a900473ffffffffffffffffffffffffffffffffffffffff16908060010154908060020154908060030154908060040160009054906101000a900460ff16905085565b60007f000000000000000000000000000000000000000000000000000000000000000073ffffffffffffffffffffffffffffffffffffffff166370a08231306040518263ffffffff1660e01b8152600401808273ffffffffffffffffffffffffffffffffffffffff1673ffffffffffffffffffffffffffffffffffffffff16815260200191505060206040518083038186803b15801561110257600080fd5b505afa158015611116573d6000803e3d6000fd5b505050506040513d602081101561112c57600080fd5b8101908080519060200190929190505050905090565b600b602052816000526040600020602052806000526040600020600091509150508060000154908060010154908060020154908060030154908060040154908060050160009054906101000a900463ffffffff16908060050160049054906101000a900460ff16908060050160059054906101000a900460ff16905088565b6000809054906101000a900473ffffffffffffffffffffffffffffffffffffffff1673ffffffffffffffffffffffffffffffffffffffff163373ffffffffffffffffffffffffffffffffffffffff1614611266576040517f08c379a0000000000000000000000000000000000000000000000000000000008152600401808060200182810382526037815260200180613ea36037913960400191505060405180910390fd5b6000809054906101000a900473ffffffffffffffffffffffffffffffffffffffff1673ffffffffffffffffffffffffffffffffffffffff16ff5b60011515600260003373ffffffffffffffffffffffffffffffffffffffff1673ffffffffffffffffffffffffffffffffffffffff16815260200190815260200160002060040160009054906101000a900460ff1615151461130057600080fd5b600b60003373ffffffffffffffffffffffffffffffffffffffff1673ffffffffffffffffffffffffffffffffffffffff168152602001908152602001600020600082815260200190815260200160002060000154821461135f57600080fd5b600b60003373ffffffffffffffffffffffffffffffffffffffff1673ffffffffffffffffffffffffffffffffffffffff168152602001908152602001600020600082815260200190815260200160002060020154600b60003373ffffffffffffffffffffffffffffffffffffffff1673ffffffffffffffffffffffffffffffffffffffff1681526020019081526020016000206000838152602001908152602001600020600101541461141157600080fd5b60001515600b60003373ffffffffffffffffffffffffffffffffffffffff1673ffffffffffffffffffffffffffffffffffffffff168152602001908152602001600020600083815260200190815260200160002060050160059054906101000a900460ff1615151461148257600080fd5b6001600b60003373ffffffffffffffffffffffffffffffffffffffff1673ffffffffffffffffffffffffffffffffffffffff168152602001908152602001600020600083815260200190815260200160002060050160056101000a81548160ff021916908315150217905550600b60003373ffffffffffffffffffffffffffffffffffffffff1673ffffffffffffffffffffffffffffffffffffffff168152602001908152602001600020600082815260200190815260200160002060040154600260003373ffffffffffffffffffffffffffffffffffffffff1673ffffffffffffffffffffffffffffffffffffffff16815260200190815260200160002060020160008282540192505081905550600260003373ffffffffffffffffffffffffffffffffffffffff1673ffffffffffffffffffffffffffffffffffffffff16815260200190815260200160002060020154600b60003373ffffffffffffffffffffffffffffffffffffffff1673ffffffffffffffffffffffffffffffffffffffff1681526020019081526020016000206000838152602001908152602001600020600401543373ffffffffffffffffffffffffffffffffffffffff167ff01da32686223933d8a18a391060918c7f11a3648639edd87ae013e2e273174360405160405180910390a45050565b60011515600260003373ffffffffffffffffffffffffffffffffffffffff1673ffffffffffffffffffffffffffffffffffffffff16815260200190815260200160002060040160009054906101000a900460ff161515146116cf57600080fd5b80600260003373ffffffffffffffffffffffffffffffffffffffff1673ffffffffffffffffffffffffffffffffffffffff16815260200190815260200160002060030154101561171e57600080fd5b80600260003373ffffffffffffffffffffffffffffffffffffffff1673ffffffffffffffffffffffffffffffffffffffff1681526020019081526020016000206003016000828254039250508190555080600260003373ffffffffffffffffffffffffffffffffffffffff1673ffffffffffffffffffffffffffffffffffffffff1681526020019081526020016000206002016000828254019250508190555080600260003373ffffffffffffffffffffffffffffffffffffffff1673ffffffffffffffffffffffffffffffffffffffff168152602001908152602001600020600101543373ffffffffffffffffffffffffffffffffffffffff167f4c7b5d04b7992ff125f033431c4ebf536e5e62bec91ac1f81267f0c579e3e8f360405160405180910390a450565b6000809054906101000a900473ffffffffffffffffffffffffffffffffffffffff1681565b60011515600260003373ffffffffffffffffffffffffffffffffffffffff1673ffffffffffffffffffffffffffffffffffffffff16815260200190815260200160002060040160009054906101000a900460ff161515146118cd57600080fd5b6009547f000000000000000000000000000000000000000000000000000000000000000073ffffffffffffffffffffffffffffffffffffffff166370a08231306040518263ffffffff1660e01b8152600401808273ffffffffffffffffffffffffffffffffffffffff1673ffffffffffffffffffffffffffffffffffffffff16815260200191505060206040518083038186803b15801561196d57600080fd5b505afa158015611981573d6000803e3d6000fd5b505050506040513d602081101561199757600080fd5b810190808051906020019092919050505010156119ff576040517f08c379a000000000000000000000000000000000000000000000000000000000815260040180806020018281038252602b815260200180613e27602b913960400191505060405180910390fd5b60008111611a75576040517f08c379a000000000000000000000000000000000000000000000000000000000815260040180806020018281038252601a8152602001807f43616e6e6f742070726f63657373207468697320616d6f756e7400000000000081525060200191505060405180910390fd5b80600260003373ffffffffffffffffffffffffffffffffffffffff1673ffffffffffffffffffffffffffffffffffffffff168152602001908152602001600020600301541015611b10576040517f08c379a000000000000000000000000000000000000000000000000000000000815260040180806020018281038252603f815260200180613eda603f913960400191505060405180910390fd5b60018263ffffffff16101580611b2d575060648263ffffffff1611155b611b9f576040517f08c379a00000000000000000000000000000000000000000000000000000000081526004018080602001828103825260178152602001807f4775657373206265747765656e203120616e642031303000000000000000000081525060200191505060405180910390fd5b80600260003373ffffffffffffffffffffffffffffffffffffffff1673ffffffffffffffffffffffffffffffffffffffff16815260200190815260200160002060030160008282540392505081905550600c60003373ffffffffffffffffffffffffffffffffffffffff1673ffffffffffffffffffffffffffffffffffffffff168152602001908152602001600020600081819054906101000a900463ffffffff168092919060010191906101000a81548163ffffffff021916908363ffffffff16021790555050600c60003373ffffffffffffffffffffffffffffffffffffffff1673ffffffffffffffffffffffffffffffffffffffff16815260200190815260200160002060009054906101000a900463ffffffff16600560146101000a81548163ffffffff021916908363ffffffff160217905550600560149054906101000a900463ffffffff16600b60003373ffffffffffffffffffffffffffffffffffffffff1673ffffffffffffffffffffffffffffffffffffffff1681526020019081526020016000206000600560149054906101000a900463ffffffff1663ffffffff16815260200190815260200160002060050160006101000a81548163ffffffff021916908363ffffffff16021790555033600560006101000a81548173ffffffffffffffffffffffffffffffffffffffff021916908373ffffffffffffffffffffffffffffffffffffffff1602179055506000434433604051602001808481526020018381526020018273ffffffffffffffffffffffffffffffffffffffff1673ffffffffffffffffffffffffffffffffffffffff1660601b815260140193505050506040516020818303038152906040528051906020012060001c9050611e2c8184846131a1565b50505050565b7f000000000000000000000000000000000000000000000000000000000000000073ffffffffffffffffffffffffffffffffffffffff163373ffffffffffffffffffffffffffffffffffffffff1614611ef3576040517f08c379a000000000000000000000000000000000000000000000000000000000815260040180806020018281038252601f8152602001807f4f6e6c7920565246436f6f7264696e61746f722063616e2066756c66696c6c0081525060200191505060405180910390fd5b611efd82826132bd565b5050565b6000809054906101000a900473ffffffffffffffffffffffffffffffffffffffff1673ffffffffffffffffffffffffffffffffffffffff163373ffffffffffffffffffffffffffffffffffffffff1614611fa6576040517f08c379a0000000000000000000000000000000000000000000000000000000008152600401808060200182810382526037815260200180613ea36037913960400191505060405180910390fd5b600080600360029054906101000a900460ff1615600360026101000a81548160ff021916908315150217905550600360029054906101000a900460ff1615611ff5576001915060009050611ffe565b60009150600190505b8015158215157f8eb4595c4dfb33fa2b81712a0012c0c09697aaf704be0e0ca466024fbd0f40cd60405160405180910390a35050565b6000809054906101000a900473ffffffffffffffffffffffffffffffffffffffff1673ffffffffffffffffffffffffffffffffffffffff163373ffffffffffffffffffffffffffffffffffffffff16146120d9576040517f08c379a0000000000000000000000000000000000000000000000000000000008152600401808060200182810382526037815260200180613ea36037913960400191505060405180910390fd5b600080600360019054906101000a900460ff1615600360016101000a81548160ff021916908315150217905550600360019054906101000a900460ff1615612128576001915060009050612131565b60009150600190505b8015158215157f2de720a3f31cc0e3de4e7ec50c193b15b521397edf37e35dce1c4ccd1770980c60405160405180910390a35050565b60011515600360019054906101000a900460ff1615151461218757600080fd5b600260003373ffffffffffffffffffffffffffffffffffffffff1673ffffffffffffffffffffffffffffffffffffffff16815260200190815260200160002060040160009054906101000a900460ff166121e4576121e361338a565b5b34600260003373ffffffffffffffffffffffffffffffffffffffff1673ffffffffffffffffffffffffffffffffffffffff1681526020019081526020016000206002016000828254019250508190555034600260003373ffffffffffffffffffffffffffffffffffffffff1673ffffffffffffffffffffffffffffffffffffffff168152602001908152602001600020600101543373ffffffffffffffffffffffffffffffffffffffff167f90890809c654f11d6e72a28fa60149770a0d11ec6c92319d6ceb2bb0a4ea1a1560405160405180910390a4565b606080606080606060011515600260003373ffffffffffffffffffffffffffffffffffffffff1673ffffffffffffffffffffffffffffffffffffffff16815260200190815260200160002060040160009054906101000a900460ff1615151461232557600080fd5b6000600c60003373ffffffffffffffffffffffffffffffffffffffff1673ffffffffffffffffffffffffffffffffffffffff16815260200190815260200160002060009054906101000a900463ffffffff1663ffffffff1690506000600b60003373ffffffffffffffffffffffffffffffffffffffff1673ffffffffffffffffffffffffffffffffffffffff16815260200190815260200160002060008381526020019081526020016000206000015490506000600b60003373ffffffffffffffffffffffffffffffffffffffff1673ffffffffffffffffffffffffffffffffffffffff16815260200190815260200160002060008481526020019081526020016000206001015490506000600b60003373ffffffffffffffffffffffffffffffffffffffff1673ffffffffffffffffffffffffffffffffffffffff16815260200190815260200160002060008581526020019081526020016000206002015490506000600b60003373ffffffffffffffffffffffffffffffffffffffff1673ffffffffffffffffffffffffffffffffffffffff16815260200190815260200160002060008681526020019081526020016000206003015490506000600b60003373ffffffffffffffffffffffffffffffffffffffff1673ffffffffffffffffffffffffffffffffffffffff16815260200190815260200160002060008781526020019081526020016000206004015490506060600167ffffffffffffffff8111801561255157600080fd5b506040519080825280602002602001820160405280156125805781602001602082028036833780820191505090505b5090506060600167ffffffffffffffff8111801561259d57600080fd5b506040519080825280602002602001820160405280156125cc5781602001602082028036833780820191505090505b5090506060600167ffffffffffffffff811180156125e957600080fd5b506040519080825280602002602001820160405280156126185781602001602082028036833780820191505090505b5090506060600167ffffffffffffffff8111801561263557600080fd5b506040519080825280602002602001820160405280156126645781602001602082028036833780820191505090505b5090506060600167ffffffffffffffff8111801561268157600080fd5b506040519080825280602002602001820160405280156126b05781602001602082028036833780820191505090505b50905089846000815181106126c157fe5b60200260200101818152505088856000815181106126db57fe5b60200260200101818152505087836000815181106126f557fe5b602002602001018181525050868260008151811061270f57fe5b602002602001018181525050858160008151811061272957fe5b60200260200101818152505083858484849f509f509f509f509f5050505050505050505050509091929394565b60011515600260003373ffffffffffffffffffffffffffffffffffffffff1673ffffffffffffffffffffffffffffffffffffffff16815260200190815260200160002060040160009054906101000a900460ff161515146127b657600080fd5b60011515600360029054906101000a900460ff161515146127d657600080fd5b6000600260003373ffffffffffffffffffffffffffffffffffffffff1673ffffffffffffffffffffffffffffffffffffffff16815260200190815260200160002060030154600260003373ffffffffffffffffffffffffffffffffffffffff1673ffffffffffffffffffffffffffffffffffffffff1681526020019081526020016000206002015401905060008110156128d8576040517f08c379a000000000000000000000000000000000000000000000000000000000815260040180806020018281038252601a8152602001807f43616e6e6f742070726f63657373207468697320616d6f756e7400000000000081525060200191505060405180910390fd5b6000600260003373ffffffffffffffffffffffffffffffffffffffff1673ffffffffffffffffffffffffffffffffffffffff168152602001908152602001600020600201819055506000600260003373ffffffffffffffffffffffffffffffffffffffff1673ffffffffffffffffffffffffffffffffffffffff168152602001908152602001600020600301819055508173ffffffffffffffffffffffffffffffffffffffff166108fc829081150290604051600060405180830381858888f193505050501580156129ae573d6000803e3d6000fd5b5080600260003373ffffffffffffffffffffffffffffffffffffffff1673ffffffffffffffffffffffffffffffffffffffff168152602001908152602001600020600101543373ffffffffffffffffffffffffffffffffffffffff167ff279e6a1f5e320cca91135676d9cb6e44ca8a08c0b88342bcdb1144f6511b56860405160405180910390a45050565b60608060608060608060011515600260003373ffffffffffffffffffffffffffffffffffffffff1673ffffffffffffffffffffffffffffffffffffffff16815260200190815260200160002060040160009054906101000a900460ff16151514612aa357600080fd5b6060600c60003373ffffffffffffffffffffffffffffffffffffffff1673ffffffffffffffffffffffffffffffffffffffff16815260200190815260200160002060009054906101000a900463ffffffff1663ffffffff1667ffffffffffffffff81118015612b1157600080fd5b50604051908082528060200260200182016040528015612b405781602001602082028036833780820191505090505b5090506060600c60003373ffffffffffffffffffffffffffffffffffffffff1673ffffffffffffffffffffffffffffffffffffffff16815260200190815260200160002060009054906101000a900463ffffffff1663ffffffff1667ffffffffffffffff81118015612bb157600080fd5b50604051908082528060200260200182016040528015612be05781602001602082028036833780820191505090505b5090506060600c60003373ffffffffffffffffffffffffffffffffffffffff1673ffffffffffffffffffffffffffffffffffffffff16815260200190815260200160002060009054906101000a900463ffffffff1663ffffffff1667ffffffffffffffff81118015612c5157600080fd5b50604051908082528060200260200182016040528015612c805781602001602082028036833780820191505090505b5090506060600c60003373ffffffffffffffffffffffffffffffffffffffff1673ffffffffffffffffffffffffffffffffffffffff16815260200190815260200160002060009054906101000a900463ffffffff1663ffffffff1667ffffffffffffffff81118015612cf157600080fd5b50604051908082528060200260200182016040528015612d205781602001602082028036833780820191505090505b5090506060600c60003373ffffffffffffffffffffffffffffffffffffffff1673ffffffffffffffffffffffffffffffffffffffff16815260200190815260200160002060009054906101000a900463ffffffff1663ffffffff1667ffffffffffffffff81118015612d9157600080fd5b50604051908082528060200260200182016040528015612dc05781602001602082028036833780820191505090505b5090506060600c60003373ffffffffffffffffffffffffffffffffffffffff1673ffffffffffffffffffffffffffffffffffffffff16815260200190815260200160002060009054906101000a900463ffffffff1663ffffffff1667ffffffffffffffff81118015612e3157600080fd5b50604051908082528060200260200182016040528015612e605781602001602082028036833780820191505090505b50905060008090505b600c60003373ffffffffffffffffffffffffffffffffffffffff1673ffffffffffffffffffffffffffffffffffffffff16815260200190815260200160002060009054906101000a900463ffffffff1663ffffffff1681101561318057600b60003373ffffffffffffffffffffffffffffffffffffffff1673ffffffffffffffffffffffffffffffffffffffff168152602001908152602001600020600060018301815260200190815260200160002060000154868281518110612f2957fe5b602002602001018181525050600b60003373ffffffffffffffffffffffffffffffffffffffff1673ffffffffffffffffffffffffffffffffffffffff168152602001908152602001600020600060018301815260200190815260200160002060010154878281518110612f9857fe5b602002602001018181525050600b60003373ffffffffffffffffffffffffffffffffffffffff1673ffffffffffffffffffffffffffffffffffffffff16815260200190815260200160002060006001830181526020019081526020016000206002015485828151811061300757fe5b602002602001018181525050600b60003373ffffffffffffffffffffffffffffffffffffffff1673ffffffffffffffffffffffffffffffffffffffff16815260200190815260200160002060006001830181526020019081526020016000206003015484828151811061307657fe5b602002602001018181525050600b60003373ffffffffffffffffffffffffffffffffffffffff1673ffffffffffffffffffffffffffffffffffffffff1681526020019081526020016000206000600183018152602001908152602001600020600401548382815181106130e557fe5b602002602001018181525050600b60003373ffffffffffffffffffffffffffffffffffffffff1673ffffffffffffffffffffffffffffffffffffffff168152602001908152602001600020600060018301815260200190815260200160002060050160059054906101000a900460ff1682828151811061316157fe5b6020026020010190151590811515815250508080600101915050612e69565b8587868686869c509c509c509c509c509c5050505050505050909192939495565b60006131b38363ffffffff168361359b565b5060011515600760019054906101000a900460ff161515146131d457600080fd5b6131e3600854600954866136e5565b905061320d60016131ff6103e8876138f390919063ffffffff16565b61397d90919063ffffffff16565b600b60003373ffffffffffffffffffffffffffffffffffffffff1673ffffffffffffffffffffffffffffffffffffffff1681526020019081526020016000206000600560149054906101000a900463ffffffff1663ffffffff168152602001908152602001600020600001819055507fe5f5b44d72d4143c278eb745c4acc0695c4a5bc616be5beecf46abe29661780e816040518082815260200191505060405180910390a18090509392505050565b6132e460016132d66064846138f390919063ffffffff16565b61397d90919063ffffffff16565b600a81905550600a54600b6000600560009054906101000a900473ffffffffffffffffffffffffffffffffffffffff1673ffffffffffffffffffffffffffffffffffffffff1673ffffffffffffffffffffffffffffffffffffffff1681526020019081526020016000206000600560149054906101000a900463ffffffff1663ffffffff16815260200190815260200160002060020181905550613386613a05565b5050565b60001515600260003373ffffffffffffffffffffffffffffffffffffffff1673ffffffffffffffffffffffffffffffffffffffff16815260200190815260200160002060040160009054906101000a900460ff16151514613436576040517f08c379a0000000000000000000000000000000000000000000000000000000008152600401808060200182810382526024815260200180613e526024913960400191505060405180910390fd5b6040518060a001604052803373ffffffffffffffffffffffffffffffffffffffff1681526020016001548152602001600081526020016000815260200160011515815250600260003373ffffffffffffffffffffffffffffffffffffffff1673ffffffffffffffffffffffffffffffffffffffff16815260200190815260200160002060008201518160000160006101000a81548173ffffffffffffffffffffffffffffffffffffffff021916908373ffffffffffffffffffffffffffffffffffffffff16021790555060208201518160010155604082015181600201556060820151816003015560808201518160040160006101000a81548160ff0219169083151502179055509050506001543373ffffffffffffffffffffffffffffffffffffffff167f6b8fe0f067804a78a12efa88b8428446c8d8a703d5604dffc63ac27fcbdcfd0d60405160405180910390a3600160008154809291906001019190505550565b600082600b60003373ffffffffffffffffffffffffffffffffffffffff1673ffffffffffffffffffffffffffffffffffffffff1681526020019081526020016000206000600560149054906101000a900463ffffffff1663ffffffff1681526020019081526020016000206001018190555081600b60003373ffffffffffffffffffffffffffffffffffffffff1673ffffffffffffffffffffffffffffffffffffffff1681526020019081526020016000206000600560149054906101000a900463ffffffff1663ffffffff168152602001908152602001600020600301819055506001600760016101000a81548160ff021916908315150217905550823373ffffffffffffffffffffffffffffffffffffffff167fc365d029fd23e752c7525f3d7edd08309f27edb810bb7026fb935e58830223f560405160405180910390a382905092915050565b60007f000000000000000000000000000000000000000000000000000000000000000073ffffffffffffffffffffffffffffffffffffffff16634000aea07f000000000000000000000000000000000000000000000000000000000000000085878660405160200180838152602001828152602001925050506040516020818303038152906040526040518463ffffffff1660e01b8152600401808473ffffffffffffffffffffffffffffffffffffffff1673ffffffffffffffffffffffffffffffffffffffff16815260200183815260200180602001828103825283818151815260200191508051906020019080838360005b838110156137f45780820151818401526020810190506137d9565b50505050905090810190601f1680156138215780820380516001836020036101000a031916815260200191505b50945050505050602060405180830381600087803b15801561384257600080fd5b505af1158015613856573d6000803e3d6000fd5b505050506040513d602081101561386c57600080fd5b810190808051906020019092919050505050600061389f858430600460008a815260200190815260200160002054613d73565b90506138c86001600460008881526020019081526020016000205461397d90919063ffffffff16565b60046000878152602001908152602001600020819055506138e98582613ded565b9150509392505050565b60008082141561396b576040517f08c379a00000000000000000000000000000000000000000000000000000000081526004018080602001828103825260188152602001807f536166654d6174683a206d6f64756c6f206279207a65726f000000000000000081525060200191505060405180910390fd5b81838161397457fe5b06905092915050565b6000808284019050838110156139fb576040517f08c379a000000000000000000000000000000000000000000000000000000000815260040180806020018281038252601b8152602001807f536166654d6174683a206164646974696f6e206f766572666c6f77000000000081525060200191505060405180910390fd5b8091505092915050565b6000600b6000600560009054906101000a900473ffffffffffffffffffffffffffffffffffffffff1673ffffffffffffffffffffffffffffffffffffffff1673ffffffffffffffffffffffffffffffffffffffff1681526020019081526020016000206000600560149054906101000a900463ffffffff1663ffffffff1681526020019081526020016000206001015490506000600b6000600560009054906101000a900473ffffffffffffffffffffffffffffffffffffffff1673ffffffffffffffffffffffffffffffffffffffff1673ffffffffffffffffffffffffffffffffffffffff1681526020019081526020016000206000600560149054906101000a900463ffffffff1663ffffffff1681526020019081526020016000206002015490506000600b6000600560009054906101000a900473ffffffffffffffffffffffffffffffffffffffff1673ffffffffffffffffffffffffffffffffffffffff1673ffffffffffffffffffffffffffffffffffffffff1681526020019081526020016000206000600560149054906101000a900463ffffffff1663ffffffff168152602001908152602001600020600301549050828214613ccf576000600b6000600560009054906101000a900473ffffffffffffffffffffffffffffffffffffffff1673ffffffffffffffffffffffffffffffffffffffff1673ffffffffffffffffffffffffffffffffffffffff1681526020019081526020016000206000600560149054906101000a900463ffffffff1663ffffffff168152602001908152602001600020600401819055508260001515600560009054906101000a900473ffffffffffffffffffffffffffffffffffffffff1673ffffffffffffffffffffffffffffffffffffffff167f465f7af2aeeee51e07ad27036e5971e5f85b8c27879c0cb9e062b1d84ca1fa3c856040518082815260200191505060405180910390a4613d6e565b82821415613d6d5760028102600b6000600560009054906101000a900473ffffffffffffffffffffffffffffffffffffffff1673ffffffffffffffffffffffffffffffffffffffff1673ffffffffffffffffffffffffffffffffffffffff1681526020019081526020016000206000600560149054906101000a900463ffffffff1663ffffffff168152602001908152602001600020600401819055505b5b505050565b600084848484604051602001808581526020018481526020018373ffffffffffffffffffffffffffffffffffffffff1673ffffffffffffffffffffffffffffffffffffffff1681526020018281526020019450505050506040516020818303038152906040528051906020012060001c9050949350505050565b6000828260405160200180838152602001828152602001925050506040516020818303038152906040528051906020012090509291505056fe4e6f7420656e6f756768204c494e4b202d2066696c6c20636f6e74726163742077697468206661756365746164647265737320616c7265616479207265676973746572656420617320706c61796572496e73756666696369656e742062616c616e636520746f20636f6d706c657465207472616e73616374696f6e2e4f6e6c7920746865206f776e6572206f66207468697320636f6e74726163742063616e2063616c6c20746869732066756e6374696f6e2e496e73756666696369656e742066756e6473206f6e20746865207461626c652e20506c65617365206164642066756e647320746f20796f757220626574732ea26469706673582212201b75a06747caf5d545eea7e426054f9433e547febaaec94e3084cde90fa2e73564736f6c63430006060033",
  "immutableReferences": {
    "2053": [
      {
        "length": 32,
        "start": 4199
      },
      {
        "length": 32,
        "start": 6354
      },
      {
        "length": 32,
        "start": 14057
      }
    ],
    "2055": [
      {
        "length": 32,
        "start": 7732
      },
      {
        "length": 32,
        "start": 14117
      }
    ]
  },
  "source": "pragma solidity >=0.6.0 <0.8.0;\n//SPDX-License-Identifier: UNLICENSED\n\n//import \"github.com/Arachnid/solidity-stringutils/strings.sol\";\nimport \"./Slot_Machine.sol\";\nimport \"@chainlink/contracts/src/v0.6/VRFConsumerBase.sol\";\n\n/**\n * @title Guessing Game contract.\n * @author Macccs Universal\n * @notice have a guess at the random number to be retuned, if you're right you win double the money you've bet on your guess.\n * @dev extension of Slot_machine contract.\n * @dev All function calls are currently implemented without side effects.\n * @dev Constructor inherits VRFConsumerBase\n * @dev Network: Kovan\n * @dev LINK token address: 0xa36085f69e2889c224210f603d836748e7dc0088\n * @dev Key Hash: 0x6c3699283bda56ad74f6b855546325b68d482e983852a7a82979cc4807b641f4\n * @dev Chainlink VRF Coordinator address: 0xdD3782915140c8f3b190B5D67eAc6dc5760C46E9\n * @dev Fee: 100000000000000000\n */\n\ncontract GuessingGame is Slot_Machine, VRFConsumerBase{\n    \n    //S T R U C T\n    struct GameLog{\n        uint gameId;\n        uint256 playerGuess;\n        uint256 winningNumber;\n        uint betPlaced;\n        uint reward;\n        uint32 gamesPlayed;\n        bool winner;\n        bool claimed;\n    }\n    \n\n    // S T A T E  V A R I A B L E\n    address private playerAddress;\n    uint32  private counter;\n    uint private bettingAmount;\n    bool private cWinnerMutex;\n    bool private playing;\n    bytes32 internal keyHash;\n    uint256 internal fee;\n    \n    /**\n     * @dev uint256 random number returned from chainlink VRF contract.\n     */\n    uint256 public randomResult;\n    \n    \n    //M A P P I N G\n    mapping (address => mapping (uint => GameLog)) public gamesLog;  //tracks player interaction and game results.\n    mapping (address => uint32) public playCounter; //counts how many times the game has been played.\n\n    // E V E N T S\n\n  /**\n   * @notice event for when players guess is confirmed.\n   * @dev event triggered after guess and betting amount have been set in the game log.\n   * @param _player address the guess is coming from.\n   * @param _guess made by sending address.\n   */\n    event Guess(address indexed _player, uint indexed _guess);\n    \n  /**\n   * @notice event for the game results.\n   * @dev event triggered random number has been returned and compared with guess.\n   * @param _player address currently playing.\n   * @param _winner is this player a winner true or false.\n   * @param _guess made by playing address. \n   * @param _winningNo random number returned by VRF contract.\n   */\n    event Result(address indexed _player, bool indexed _winner, uint indexed _guess, uint _winningNo);\n    \n  /**\n   * @notice event for rewards claimed.\n   * @dev event triggered when rewards are claimed.\n   * @param _player address currently playing.\n   * @param _rewardClaimed has the reward been claimed?\n   * @param _newBalance updated player balance after reward is claimed. \n   */\n    event RewardClaimed(address indexed _player, uint indexed _rewardClaimed, uint indexed _newBalance);\n    \n  /**\n   * @dev event triggered when random number is about to be requested.\n   * @param _requestId.\n   */\n    event RequestedRandomness(bytes32 _requestId);\n\n    constructor(address _linkTokenAddress, bytes32 _keyHash, \n    address _vrfCoordinatorAddress, uint256 _fee) \n    public \n    VRFConsumerBase( \n        _vrfCoordinatorAddress,\n        _linkTokenAddress\n        )  \n        {\n            keyHash = _keyHash;\n            fee = _fee;\n        }\n\n  /**\n   * @notice LINK token balance of this contract.\n   * @dev LINK is required to make random number requests.\n   * @dev Contract must have a balance of at least 0.1 LINK\n   * @return LINK balance of contract.\n   */\n    function getLinkBalance() public view returns(uint){\n        return LINK.balanceOf(address(this));\n    }\n    \n    /**\n     * @notice use this function to claim all available rewards.\n     * @dev can only be called by registered players.\n     * @dev loops through number of times the sending address has played.\n     * @dev not implemented on UI.\n     */\n    // function claimAllRewards() public onlyPlayer(){\n    //     //return array of mapping and all rewards are stored in a totalRewards variable.\n    //     //totalRewards are then added to players balance.\n    //     uint totalRewards;\n        \n    //     for(uint256 i = 0; i < playCounter[msg.sender]; i++) {\n    //         require(gamesLog[msg.sender][i].playerGuess == gamesLog[msg.sender][i].winningNumber);\n    //         require(gamesLog[msg.sender][i].claimed == false);\n    //         totalRewards = totalRewards + gamesLog[msg.sender][i].reward;\n    //         gamesLog[msg.sender][i].claimed = true;\n    //         player[msg.sender].balance += totalRewards;\n    //     }\n    // }\n    \n    /**\n     * @notice use this function to claim a reward.\n     * @dev can only be called by registered players\n     * @param _gameId uint representing sending addresses gameId in games log.\n     * @param _counter uint pointing to the index of the game where rewards can be claimed.\n     */\n    function claimReward(uint _gameId, uint _counter) public onlyPlayer(){\n        require(_gameId == gamesLog[msg.sender][_counter].gameId);\n        require(gamesLog[msg.sender][_counter].playerGuess == gamesLog[msg.sender][_counter].winningNumber);\n        require(gamesLog[msg.sender][_counter].claimed == false);\n        gamesLog[msg.sender][_counter].claimed = true;\n        player[msg.sender].balance += gamesLog[msg.sender][_counter].reward;\n        emit RewardClaimed(msg.sender, gamesLog[msg.sender][_counter].reward, player[msg.sender].balance);\n    }\n\n\n    /**\n     * @notice results for last game played.\n     * @dev can only be called by registered players.\n     * @return game Id, guess, winning number, bet and reward of the current game. \n     */  \n    function getResult() \n    public \n    onlyPlayer()\n    view \n    returns\n    (\n        uint256[] memory, \n        uint256[] memory, \n        uint256[] memory, \n        uint[] memory,\n        uint[] memory\n    )\n    {\n        uint i = playCounter[msg.sender];\n        \n        uint256 Id = gamesLog[msg.sender][i].gameId;\n        uint256 guess = gamesLog[msg.sender][i].playerGuess;\n        uint256 winningNo = gamesLog[msg.sender][i].winningNumber;\n        uint bet = gamesLog[msg.sender][i].betPlaced;\n        uint reward = gamesLog[msg.sender][i].reward;\n        \n        // Dynamic Array Declarations\n        \n        uint256[] memory playerGuesses = new uint256[](1);\n        uint256[] memory gameIds = new uint256[](1);\n        uint256[] memory winningNumbers = new uint256[](1);\n        uint[] memory betsPlaced = new uint[](1);\n        uint[] memory rewards = new uint[](1);\n        //Storing results in arrays\n        \n        gameIds[0] = Id;\n        playerGuesses[0] = guess;\n        winningNumbers[0] = winningNo;\n        betsPlaced[0] = bet;\n        rewards[0] = reward;\n        \n        return (gameIds, playerGuesses, winningNumbers, betsPlaced, rewards);\n    }\n    \n    /**\n     * @notice log of all games played by player.\n     * @dev loops through number of games played by address and stores each games variables in an array.\n     * @dev can only be called by registered players.\n     * @return game Id, guess, winning number, bet, reward and if the rewards have been claimed. \n     */  \n    function getLogs() \n    public \n    onlyPlayer()\n    view \n    returns \n    (\n        uint256[] memory, \n        uint256[] memory, \n        uint256[] memory, \n        uint[] memory,\n        uint[] memory,\n        bool[] memory\n    ) \n    \n    {\n        uint256[] memory playerGuesses = new uint256[](playCounter[msg.sender]);\n        uint256[] memory gameIds = new uint256[](playCounter[msg.sender]);\n        uint256[] memory winningNumbers = new uint256[](playCounter[msg.sender]);\n        uint[] memory betsPlaced = new uint[](playCounter[msg.sender]);\n        uint[] memory rewards = new uint[](playCounter[msg.sender]);\n        bool[] memory claims = new bool[](playCounter[msg.sender]);\n        uint i;\n        for(i = 0; i < playCounter[msg.sender]; i++)\n        {\n            gameIds[i] = gamesLog[msg.sender][i+1].gameId;\n            playerGuesses[i] = gamesLog[msg.sender][i+1].playerGuess;\n            winningNumbers[i] = gamesLog[msg.sender][i+1].winningNumber;\n            betsPlaced[i] = gamesLog[msg.sender][i+1].betPlaced;\n            rewards[i] = gamesLog[msg.sender][i+1].reward;\n            claims[i] = gamesLog[msg.sender][i+1].claimed;\n        }\n        \n        return (gameIds, playerGuesses, winningNumbers, betsPlaced, rewards, claims);\n    }\n    \n    \n   /**\n     * @dev Callback function used by VRF Coordinator\n     */\n    function fulfillRandomness(bytes32 requestId , uint256 randomness) internal override {\n        randomResult= randomness.mod(100).add(1);\n        gamesLog[playerAddress][counter].winningNumber = randomResult;\n        distributeReward();\n    }\n    \n    /** \n     * @notice initiates the start of the game and makes all necessary checks before continuing.\n     * @dev Call startGame function after all checks and updates have been completed.\n     * @param _guess is players guess.\n     * @param _bettingAmount is the amount player is betting on the result.\n     */\n    function playGame(uint32 _guess, uint _bettingAmount) public onlyPlayer(){\n        require(LINK.balanceOf(address(this)) >= fee, \"Not enough LINK - fill contract with faucet\");\n        require(_bettingAmount > 0, \"Cannot process this amount\");\n        require(player[msg.sender].placedBets >= _bettingAmount, \"Insufficient funds on the table. Please add funds to your bets.\");\n        require(_guess >= 1 || _guess <= 100,\"Guess between 1 and 100\");\n        player[msg.sender].placedBets -= _bettingAmount;\n        playCounter[msg.sender]++;\n        counter = playCounter[msg.sender];\n        gamesLog[msg.sender][counter].gamesPlayed = counter;\n        playerAddress = msg.sender;\n        uint userProvidedSeed = uint(keccak256(abi.encodePacked(block.number,block.difficulty,msg.sender)));\n        startGame(userProvidedSeed, _guess, _bettingAmount);\n    }\n\n    /**\n     * @notice start the game.\n     * @dev confirm the players guess.\n     * @dev Requests randomness from a user-provided seed\n     * @dev can only be called by registered players.\n     * @param _userProvidedSeed provided by playGame method to generate random number.\n     * @param _guess is the players guess.\n     * @param _bettingAmount is the amount the player has bet on the result of the current game.\n     * @return requestId \n     */  \n    function startGame(uint256 _userProvidedSeed, uint32 _guess, uint _bettingAmount) internal returns (bytes32 requestId) {\n        confirmGuess(_guess, _bettingAmount);\n        require(playing == true);\n        requestId = requestRandomness(keyHash, fee, _userProvidedSeed);\n        gamesLog[msg.sender][counter].gameId = _userProvidedSeed.mod(1000).add(1);\n        emit RequestedRandomness(requestId);\n        return requestId;\n    }\n\n    /**\n     * @notice Players guesses are processed by this function.\n     * @dev function accepts funds from player. Funds are accepted as bet for the game.\n     * @param _guess players guess.\n     * @param _bettingAmount is the amount the player has placed as a bet in this game.\n     * @return player guess.\n     */\n    function confirmGuess(uint _guess, uint _bettingAmount) internal returns(uint) {\n        gamesLog[msg.sender][counter].playerGuess = _guess;\n        gamesLog[msg.sender][counter].betPlaced = _bettingAmount;\n        playing = true;\n        emit Guess(msg.sender, _guess);\n        return _guess;\n    }\n\n    \n    /** \n     * @notice determines rewards distributed according to the results.\n     * @dev check and update games log map according to results.\n     */\n    function distributeReward() internal {\n        uint guess = gamesLog[playerAddress][counter].playerGuess;\n        uint winningNo = gamesLog[playerAddress][counter].winningNumber;\n        uint bet = gamesLog[playerAddress][counter].betPlaced;\n        if(winningNo != guess){\n            gamesLog[playerAddress][counter].reward = 0;\n            emit Result(playerAddress, false, guess, winningNo);\n        } else if(winningNo == guess){\n            gamesLog[playerAddress][counter].reward = bet*2;\n        }\n    } \n    \n    \n}\n\n/**\n * @title TestGame for unit testing GuessingGame functions\n * @author Maccs\n * @dev Contract written for unti testing internal functions implemented in GuessingGame contract.\n * Internal functions inherited below are startGame(), confirmGuess() & distirbuteReward(). \n * @dev LINK token address: 0xa36085f69e2889c224210f603d836748e7dc0088\n * @dev Key Hash: 0x6c3699283bda56ad74f6b855546325b68d482e983852a7a82979cc4807b641f4\n * @dev Chainlink VRF Coordinator address: 0xdD3782915140c8f3b190B5D67eAc6dc5760C46E9\n * @dev Fee: 100000000000000000\n */\n\n contract TestGame is GuessingGame{\n\n//     //S T R U C T\n//     struct GameLog{\n//         uint gameId;\n//         uint256 playerGuess;\n//         uint256 winningNumber;\n//         uint betPlaced;\n//         uint reward;\n//         uint32 gamesPlayed;\n//         bool winner;\n//         bool claimed;\n//     }\n    \n\n//     // S T A T E  V A R I A B L E\n    address private playerAddress;\n    uint32  private counter;\n//     uint private bettingAmount;\n//     bool private cWinnerMutex;\n    bool private playing;\n//     bytes32 internal keyHash;\n//     uint256 internal fee;\n    \n\n\n    constructor(address _linkTokenAddress, bytes32 _keyHash, \n    address _vrfCoordinatorAddress, uint256 _fee) \n    public \n    GuessingGame( \n        _linkTokenAddress,\n        _keyHash,\n        _vrfCoordinatorAddress, \n        _fee\n        )  \n        {\n            // vrfCoordinatorAddress = _vrfCoordinatorAddress;\n            // linkTokenAddress =_linkTokenAddress;\n            keyHash = _keyHash;\n            fee = _fee;\n        }\n\n    /**\n     * @notice start the game.\n     * @dev confirm the players guess.\n     * @dev Requests randomness from a user-provided seed\n     * @dev can only be called by registered players.\n     * @param _userProvidedSeed provided by playGame method to generate random number.\n     * @param _guess is the players guess.\n     * @param _bettingAmount is the amount the player has bet on the result of the current game.\n     * @return requestId \n     */  \n    function _startGame(uint256 _userProvidedSeed, uint32 _guess, uint _bettingAmount) public returns (bytes32 requestId) {\n        confirmGuess(_guess, _bettingAmount);\n        require(playing == true);\n        requestId = requestRandomness(keyHash, fee, _userProvidedSeed);\n        gamesLog[msg.sender][counter].gameId = _userProvidedSeed.mod(1000).add(1);\n        emit RequestedRandomness(requestId);\n        return requestId;\n    }\n\n\n    /**\n     * @notice Players guesses are processed by this function.\n     * @dev function accepts funds from player. Funds are accepted as bet for the game.\n     * @param _guess players guess.\n     * @param _bettingAmount is the amount the player has placed as a bet in this game.\n     * @return player guess.\n     */\n    function _confirmGuess(uint _guess, uint _bettingAmount) public returns(uint) {\n        gamesLog[msg.sender][counter].playerGuess = _guess;\n        gamesLog[msg.sender][counter].betPlaced = _bettingAmount;\n        playing = true;\n        emit Guess(msg.sender, _guess);\n        return _guess;\n    }\n\n\n    /** \n     * @notice determines rewards distributed according to the results.\n     * @dev check and update games log map according to results.\n     */\n    function _distributeReward() public {\n        uint256 guess = gamesLog[msg.sender][counter].playerGuess;\n        uint256 winningNo = gamesLog[msg.sender][counter].winningNumber;\n        uint bet = gamesLog[msg.sender][counter].betPlaced;\n        if(winningNo != guess){\n            gamesLog[msg.sender][counter].reward = 0;\n            emit Result(msg.sender, false, guess, winningNo);\n        } else if(winningNo == guess){\n            gamesLog[msg.sender][counter].reward = bet*2;\n            emit Result(msg.sender, false, guess, winningNo);\n        }\n    } \n\n    function fillLogs(\n        uint _gameId,\n        uint256 _playerGuess,\n        uint256 _winningNumber,\n        uint _betPlaced,\n        uint _reward,\n        uint32 _gamesPlayed,\n        bool _winner,\n        bool _claimed,\n        uint32 _counter\n    )\n    public \n    {\n        gamesLog[msg.sender][_counter].gameId = _gameId;\n        gamesLog[msg.sender][_counter].playerGuess = _playerGuess;\n        gamesLog[msg.sender][_counter].winningNumber = _winningNumber;\n        gamesLog[msg.sender][_counter].betPlaced = _betPlaced;\n        gamesLog[msg.sender][_counter].reward = _reward;\n        gamesLog[msg.sender][_counter].gamesPlayed = _gamesPlayed;\n        gamesLog[msg.sender][_counter].winner = _winner;\n        gamesLog[msg.sender][_counter].claimed = _claimed;\n        counter = _counter;\n        \n    }\n }\n",
  "sourcePath": "/home/moses/Desktop/Lucky Ducky/contracts/GuessingGame.sol",
  "compiler": {
    "name": "solc",
    "version": "0.6.6+commit.6c089d02.Emscripten.clang"
  },
  "schemaVersion": "3.3.3",
  "updatedAt": "2021-06-18T20:35:57.941Z",
  "networkType": "ethereum",
  "devdoc": {
    "author": "Macccs Universal",
    "details": "extension of Slot_machine contract.All function calls are currently implemented without side effects.Constructor inherits VRFConsumerBaseNetwork: KovanLINK token address: 0xa36085f69e2889c224210f603d836748e7dc0088Key Hash: 0x6c3699283bda56ad74f6b855546325b68d482e983852a7a82979cc4807b641f4Chainlink VRF Coordinator address: 0xdD3782915140c8f3b190B5D67eAc6dc5760C46E9Fee: 100000000000000000",
    "methods": {
      "claimReward(uint256,uint256)": {
        "details": "can only be called by registered players",
        "params": {
          "_counter": "uint pointing to the index of the game where rewards can be claimed.",
          "_gameId": "uint representing sending addresses gameId in games log."
        }
      },
      "deposit()": {
        "details": "depositsEnabled - whilst enableDeposits is true this function will remain active.if player is already registered only players balance with be increaed."
      },
      "depositsCircuitBreaker()": {
        "details": "circuit breaker to disable the deposit function. Can only be accessed by contract owner."
      },
      "destroy()": {
        "details": "restricted to contract owner.all funds deposited to contract will be returned to owner should this be called.plans to implement a countdown to give players time to withdraw funds before contract destruction."
      },
      "getBalance()": {
        "details": "returns the current ETH balance of this contract.balance will be returned in Wei."
      },
      "getLinkBalance()": {
        "details": "LINK is required to make random number requests.Contract must have a balance of at least 0.1 LINK",
        "returns": {
          "_0": "LINK balance of contract."
        }
      },
      "getLogs()": {
        "details": "loops through number of games played by address and stores each games variables in an array.can only be called by registered players.",
        "returns": {
          "_0": "game Id, guess, winning number, bet, reward and if the rewards have been claimed. "
        }
      },
      "getPlayerBalance()": {
        "details": "will only return balance of registered player.onlyPlayer restricts access to players only.uint will return balance in Wei."
      },
      "getPlayerBets()": {
        "details": "will only return placedBets of registered player.onlyPlayer restricts access to players only.uint will return bets in Wei."
      },
      "getResult()": {
        "details": "can only be called by registered players.",
        "returns": {
          "_0": "game Id, guess, winning number, bet and reward of the current game. "
        }
      },
      "placeBet(uint256)": {
        "details": "modifier onlyPlayer allows only active players to call this function.",
        "params": {
          "_amount": "is the value amount to place a bet with."
        }
      },
      "playGame(uint32,uint256)": {
        "details": "Call startGame function after all checks and updates have been completed.",
        "params": {
          "_bettingAmount": "is the amount player is betting on the result.",
          "_guess": "is players guess."
        }
      },
      "undoBet(uint256)": {
        "details": "modifier onlyPlayer allows only active players to call this function.",
        "params": {
          "_amount": "is the value amount to remove from placedBets."
        }
      },
      "withdrawAll(address)": {
        "details": "Not sure we actually need the playerCount state variable or the struct variable playerId.modifier onlyPlayer allows only active players to call withdrawal methods.modifier withdrawalsEnabled - whilst enableWithdrawals is true this function will remain active. ",
        "params": {
          "_to": "is the EOA or Contract funds are to be withdrawn to."
        }
      },
      "withdrawBalance(address,uint256)": {
        "details": "Not sure we actually need the playerCount state variable or the struct variable playerId.modifier onlyPlayer allows only active players to call withdrawal methods.modifier withdrawalsEnabled - whilst enableWithdrawals is true this function will remain active. ",
        "params": {
          "_to": "is the EOA or Contract funds are to be withdrawn to.",
          "_withdrawalAmount": "is the value amount to be withdrawn."
        }
      },
      "withdrawalCircuitBreaker()": {
        "details": "circuit breaker to disable the deposit function. Can only be accessed by contract owner."
      }
    },
    "title": "Guessing Game contract."
  },
  "userdoc": {
    "methods": {
      "claimReward(uint256,uint256)": {
        "notice": "use this function to claim a reward."
      },
      "deposit()": {
        "notice": "Use this to deposit some ETH to contract, register as a new player and increase your balance."
      },
      "depositsCircuitBreaker()": {
        "notice": "disables/enables deposits."
      },
      "destroy()": {
        "notice": "destroys and removes contracts from blockchain."
      },
      "getBalance()": {
        "notice": "current balance of this contract."
      },
      "getLinkBalance()": {
        "notice": "LINK token balance of this contract."
      },
      "getLogs()": {
        "notice": "log of all games played by player."
      },
      "getPlayerBalance()": {
        "notice": "current balance of player."
      },
      "getPlayerBets()": {
        "notice": "current bets raised by player."
      },
      "getResult()": {
        "notice": "results for last game played."
      },
      "placeBet(uint256)": {
        "notice": "Use this to place bets."
      },
      "playGame(uint32,uint256)": {
        "notice": "initiates the start of the game and makes all necessary checks before continuing."
      },
      "undoBet(uint256)": {
        "notice": "Use this to dynamically undo placed bets."
      },
      "withdrawAll(address)": {
        "notice": "Use this to withdraw all funds from the contract."
      },
      "withdrawBalance(address,uint256)": {
        "notice": "Use this to withdraw balance from the contract that corresponds to the value or less than the players balance."
      },
      "withdrawalCircuitBreaker()": {
        "notice": "disables/enables deposits."
      }
    },
    "notice": "have a guess at the random number to be retuned, if you're right you win double the money you've bet on your guess."
  }
}