{
  "contractName": "Mortal",
  "abi": [
    {
      "inputs": [],
      "name": "owner",
      "outputs": [
        {
          "internalType": "address payable",
          "name": "",
          "type": "address"
        }
      ],
      "stateMutability": "view",
      "type": "function"
    },
    {
      "inputs": [],
      "name": "destroy",
      "outputs": [],
      "stateMutability": "nonpayable",
      "type": "function"
    }
  ],
  "bytecode": "0x6080604052336000806101000a81548173ffffffffffffffffffffffffffffffffffffffff021916908373ffffffffffffffffffffffffffffffffffffffff160217905550610200806100536000396000f3fe608060405234801561001057600080fd5b50600436106100365760003560e01c806383197ef01461003b5780638da5cb5b14610045575b600080fd5b61004361008f565b005b61004d61016e565b604051808273ffffffffffffffffffffffffffffffffffffffff1673ffffffffffffffffffffffffffffffffffffffff16815260200191505060405180910390f35b6000809054906101000a900473ffffffffffffffffffffffffffffffffffffffff1673ffffffffffffffffffffffffffffffffffffffff163373ffffffffffffffffffffffffffffffffffffffff1614610134576040517f08c379a00000000000000000000000000000000000000000000000000000000081526004018080602001828103825260378152602001806101946037913960400191505060405180910390fd5b6000809054906101000a900473ffffffffffffffffffffffffffffffffffffffff1673ffffffffffffffffffffffffffffffffffffffff16ff5b6000809054906101000a900473ffffffffffffffffffffffffffffffffffffffff168156fe4f6e6c7920746865206f776e6572206f66207468697320636f6e74726163742063616e2063616c6c20746869732066756e6374696f6e2ea2646970667358221220557ce499517c3a6c0041eea1247f5f07603dc411690e4fb097b9dfdab07b167f64736f6c63430006060033",
  "immutableReferences": {},
  "source": "pragma solidity >=0.6.2 <0.8.0;\n//SPDX-License-Identifier: UNLICENSED\n\n//import \"github.com/Arachnid/solidity-stringutils/strings.sol\";\nimport \"./Player.sol\";\n\n/**\n * @title determines owner of deployed contract\n * @dev This contract initialises the deploying address as the owner of this contract.\n */\ncontract Owned{\n  address payable public owner;\n\n  constructor() public{\n    owner = msg.sender;\n  }\n\n  /**\n   * @dev Access control Modifier\n   */\n  modifier onlyOwner() {\n    require(msg.sender == owner,\n            \"Only the owner of this contract can call this function.\");\n    _;\n  }\n}\n\n\n/**\n * @title Determines mortality of  \n * @dev This contract can destroy all extended contracts.\n * @dev onlyOwner modifier restricts access to owner declared in Owned.\n */\ncontract Mortal is Owned{\n\n  /**\n   * @notice destroys and removes contracts from blockchain.\n   * @dev restricted to contract owner.\n   * @dev all funds deposited to contract will be returned to owner should this be called.\n   * @dev plans to implement a countdown to give players time to withdraw funds before contract destruction.\n   */\n  function destroy() public onlyOwner {\n    selfdestruct(owner);\n  }\n}\n\n\n/**\n * @title Lucky Duckys - a betting platform.\n * @author Maccs Universal.\n * @notice Simple and fun contract created to give users the opportunity to win some Eth.\n * @dev All function calls are currently implemented without side effects.\n */\ncontract Slot_Machine is Mortal, GamePlayer{\n\n\n  //S T A T E - V A R I A B L E S\n\n  bool private reEntrancyMutex = false;\n  bool private enableDeposits = true;\n  bool private enableWithdrawals = true;\n\n\n  /**\n   * @notice Deposit event.\n   * @dev Event is triggered when a player makes a deposit \n   * @param _player is the address of new player.\n   * @param _Id uint that represents player as a number.\n   * @param _amount of ETH deposited to contract.\n   */\n  event Deposit(address indexed _player, uint indexed _Id, uint indexed _amount);\n  \n  /**\n   * @notice Withdraw event.\n   * @dev event triggered by withdrawal of funds from contract.\n   * @param _player is the address of new player.\n   * @param _Id uint that represents player as a number.\n   * @param _amount of ETH withdrawn from contract.\n   */\n  event Withdraw(address indexed _player, uint indexed _Id, uint indexed _amount);\n  \n  /**\n   * @notice an event for when a bet is placed.\n   * @dev event triggered when a player moves funds from their balance to placedBets indicating a bet being raised.\n   * @param _player is the address of new player.\n   * @param _Id uint that represents player as a number.\n   * @param _amount of ETH moved from balance to placedBets.\n   */\n  event BetPlaced(address indexed _player, uint indexed _Id, uint indexed _amount);\n  \n  /**\n   * @notice an event for when an amount of ETH in bets is moved back to the players balance.\n   * @dev event triggered when a player moves funds from their placedBets to balance.\n   * @param _player is the address of new player.\n   * @param _Id uint that represents player as a number.\n   * @param _amount of ETH moved from placedBets to balance.\n   */\n  event UndoneBets(address indexed _player, uint indexed _Id, uint indexed _amount);\n  \n  /**\n   * @notice event for when withdrawals are disabled/enabled.\n   * @dev event triggered when owner disables/enables withdrawals in an emergency.\n   * @param _on indicates the circuit breaker is active and withdrawals have been disabled.\n   * @param _off indicates the circuit breaker is inactive and withdrawals are enabled.\n   */\n  event WithdrawalBreaker(bool indexed _on, bool indexed _off);\n  \n  /**\n   * @notice event for when deposits are disabled/enabled.\n   * @dev event triggered when owner disables/enables deposits in an emergency.\n   * @param _on indicates the circuit breaker is active and deposits have been disabled.\n   * @param _off indicates the circuit breaker is inactive and deposits are enabled.\n   */\n  event DepositBreaker(bool indexed _on, bool indexed _off);\n  \n\n  /**\n   * @notice restricts access to parts of the game to non-registered players.\n   * @dev to ensure only registered players can access specific functions\n   */\n  modifier onlyPlayer(){\n    require(player[msg.sender].isPlayer == true);\n    _;\n  }\n    \n  /**\n   * @notice stops deposits if active.\n   * @dev checks to see if deposit circuit breaker is enabled, in which case the deposit function will not execute.\n   */\n  modifier depositsEnabled(){\n    require(enableDeposits == true);\n    _;\n  }\n\n  /**\n   * @notice stops withdrawals if active.\n   * @dev checks to see if withdrawals circuit break is enabled, in which case the withdrawBalance/withdrawAll functions will not execute.\n   */\n  modifier withdrawalsEnabled(){\n    require(enableWithdrawals == true);\n    _;\n  }\n\n  constructor() public {}\n\n  /**\n   * @notice disables/enables deposits.\n   * @dev circuit breaker to disable the deposit function. Can only be accessed by contract owner.\n   */\n  function depositsCircuitBreaker() public onlyOwner(){\n    bool _on;\n    bool _off;\n    enableDeposits = !enableDeposits;\n    if(enableDeposits){\n      _on = true;\n      _off = false;\n    } else {\n      _on = false;\n      _off = true;\n    }\n    emit DepositBreaker(_on, _off);\n  }\n\n  /**\n   * @notice disables/enables deposits.\n   * @dev circuit breaker to disable the deposit function. Can only be accessed by contract owner.\n   */\n  function withdrawalCircuitBreaker() public onlyOwner(){\n    bool _on;\n    bool _off;\n    enableWithdrawals = !enableWithdrawals;\n    if(enableWithdrawals){\n      _on = true;\n      _off = false;\n    } else {\n      _on = false;\n      _off = true;\n    }\n    emit WithdrawalBreaker(_on, _off);\n  }\n\n  /**\n   * @notice Use this to deposit some ETH to contract, register as a new player and increase your balance.\n   * @dev depositsEnabled - whilst enableDeposits is true this function will remain active.\n   * @dev if player is already registered only players balance with be increaed.\n   */\n  function deposit() external payable depositsEnabled(){\n    if(!player[msg.sender].isPlayer){\n      newPlayer(); \n    }\n    player[msg.sender].balance += msg.value;\n    emit Deposit(msg.sender,player[msg.sender].playerId,msg.value);\n  } \n\n  /**\n   * @notice Use this to withdraw all funds from the contract.\n   * @dev Not sure we actually need the playerCount state variable or the struct variable playerId.\n   * @dev modifier onlyPlayer allows only active players to call withdrawal methods.\n   * @dev modifier withdrawalsEnabled - whilst enableWithdrawals is true this function will remain active. \n   * @param _to is the EOA or Contract funds are to be withdrawn to.\n   */\n  function withdrawAll(address payable _to) public onlyPlayer() withdrawalsEnabled(){\n    uint availableAmount = player[msg.sender].balance + player[msg.sender].placedBets;\n    require(availableAmount >= 0, \"Cannot process this amount\");\n    player[msg.sender].balance = 0;\n    player[msg.sender].placedBets = 0;\n    _to.transfer(availableAmount);\n    emit Withdraw(msg.sender, player[msg.sender].playerId, availableAmount);\n  } \n\n  /**\n   * @notice Use this to withdraw balance from the contract that corresponds to the value or less than the players balance.\n   * @dev Not sure we actually need the playerCount state variable or the struct variable playerId.\n   * @dev modifier onlyPlayer allows only active players to call withdrawal methods.\n   * @dev modifier withdrawalsEnabled - whilst enableWithdrawals is true this function will remain active. \n   * @param _to is the EOA or Contract funds are to be withdrawn to.\n   * @param _withdrawalAmount is the value amount to be withdrawn.\n   */\n  function withdrawBalance(address payable _to, uint _withdrawalAmount) public onlyPlayer() withdrawalsEnabled(){\n    require(!reEntrancyMutex);\n    uint availableAmount = player[msg.sender].balance;\n    require(availableAmount >= _withdrawalAmount);\n    player[msg.sender].balance -= _withdrawalAmount;\n    reEntrancyMutex = true;\n    _to.transfer(_withdrawalAmount);\n    reEntrancyMutex = false;\n    emit Withdraw(msg.sender, player[msg.sender].playerId, _withdrawalAmount);\n  } \n\n  /**@notice Use this to place bets.\n   * @dev modifier onlyPlayer allows only active players to call this function.\n   * @param _amount is the value amount to place a bet with.\n   */\n  function placeBet(uint _amount) public onlyPlayer() {\n    require(player[msg.sender].balance >= _amount);\n    player[msg.sender].balance -= _amount;\n    player[msg.sender].placedBets += _amount;\n    emit BetPlaced(msg.sender, player[msg.sender].playerId, _amount);\n  }\n\n  /**\n   * @notice Use this to dynamically undo placed bets.\n   * @dev modifier onlyPlayer allows only active players to call this function.\n   * @param _amount is the value amount to remove from placedBets.\n   */\n  function undoBet(uint _amount) public onlyPlayer() {\n    require(player[msg.sender].placedBets >= _amount);\n    player[msg.sender].placedBets -= _amount;\n    player[msg.sender].balance += _amount;\n    emit UndoneBets(msg.sender, player[msg.sender].playerId, _amount);\n  }\n\n\n  /**\n   * @notice current balance of this contract.\n   * @dev returns the current ETH balance of this contract.\n   * @dev balance will be returned in Wei.\n   */\n  function getBalance() public view returns(uint) {\n    return address(this).balance;\n  }\n  \n  /**\n   * @notice current balance of player.\n   * @dev will only return balance of registered player.\n   * @dev onlyPlayer restricts access to players only.\n   * @dev uint will return balance in Wei.\n   */\n  function getPlayerBalance() public onlyPlayer() view returns(uint){\n      return player[msg.sender].balance;\n  }\n  \n  /**\n   * @notice current bets raised by player.\n   * @dev will only return placedBets of registered player.\n   * @dev onlyPlayer restricts access to players only.\n   * @dev uint will return bets in Wei.\n   */\n  function getPlayerBets() public onlyPlayer() view returns(uint){\n      return player[msg.sender].placedBets;\n  }\n\n  fallback () external payable{}\n\n  receive () external payable{\n    require(msg.sender.balance >= msg.value,\n          \"Insufficient balance to complete transaction.\");\n  }\n\n}\n",
  "sourcePath": "/home/moses/Desktop/Lucky Ducky/contracts/Slot_Machine.sol",
  "compiler": {
    "name": "solc",
    "version": "0.6.6+commit.6c089d02.Emscripten.clang"
  },
  "schemaVersion": "3.3.3",
  "updatedAt": "2021-06-18T20:35:52.765Z",
  "devdoc": {
    "details": "This contract can destroy all extended contracts.onlyOwner modifier restricts access to owner declared in Owned.",
    "methods": {
      "destroy()": {
        "details": "restricted to contract owner.all funds deposited to contract will be returned to owner should this be called.plans to implement a countdown to give players time to withdraw funds before contract destruction."
      }
    },
    "title": "Determines mortality of  "
  },
  "userdoc": {
    "methods": {
      "destroy()": {
        "notice": "destroys and removes contracts from blockchain."
      }
    }
  }
}