{
  "contractName": "Slot_Machine",
  "abi": [
    {
      "inputs": [],
      "stateMutability": "nonpayable",
      "type": "constructor"
    },
    {
      "anonymous": false,
      "inputs": [
        {
          "indexed": true,
          "internalType": "address",
          "name": "_player",
          "type": "address"
        },
        {
          "indexed": true,
          "internalType": "uint256",
          "name": "_Id",
          "type": "uint256"
        },
        {
          "indexed": true,
          "internalType": "uint256",
          "name": "_amount",
          "type": "uint256"
        }
      ],
      "name": "BetPlaced",
      "type": "event"
    },
    {
      "anonymous": false,
      "inputs": [
        {
          "indexed": true,
          "internalType": "address",
          "name": "_player",
          "type": "address"
        },
        {
          "indexed": true,
          "internalType": "uint256",
          "name": "_Id",
          "type": "uint256"
        },
        {
          "indexed": true,
          "internalType": "uint256",
          "name": "_amount",
          "type": "uint256"
        }
      ],
      "name": "Deposit",
      "type": "event"
    },
    {
      "anonymous": false,
      "inputs": [
        {
          "indexed": true,
          "internalType": "bool",
          "name": "_on",
          "type": "bool"
        },
        {
          "indexed": true,
          "internalType": "bool",
          "name": "_off",
          "type": "bool"
        }
      ],
      "name": "DepositBreaker",
      "type": "event"
    },
    {
      "anonymous": false,
      "inputs": [
        {
          "indexed": true,
          "internalType": "address",
          "name": "_player",
          "type": "address"
        },
        {
          "indexed": true,
          "internalType": "uint256",
          "name": "_playerId",
          "type": "uint256"
        }
      ],
      "name": "NewPlayer",
      "type": "event"
    },
    {
      "anonymous": false,
      "inputs": [
        {
          "indexed": true,
          "internalType": "address",
          "name": "_player",
          "type": "address"
        },
        {
          "indexed": true,
          "internalType": "uint256",
          "name": "_Id",
          "type": "uint256"
        },
        {
          "indexed": true,
          "internalType": "uint256",
          "name": "_amount",
          "type": "uint256"
        }
      ],
      "name": "UndoneBets",
      "type": "event"
    },
    {
      "anonymous": false,
      "inputs": [
        {
          "indexed": true,
          "internalType": "address",
          "name": "_player",
          "type": "address"
        },
        {
          "indexed": true,
          "internalType": "uint256",
          "name": "_Id",
          "type": "uint256"
        },
        {
          "indexed": true,
          "internalType": "uint256",
          "name": "_amount",
          "type": "uint256"
        }
      ],
      "name": "Withdraw",
      "type": "event"
    },
    {
      "anonymous": false,
      "inputs": [
        {
          "indexed": true,
          "internalType": "bool",
          "name": "_on",
          "type": "bool"
        },
        {
          "indexed": true,
          "internalType": "bool",
          "name": "_off",
          "type": "bool"
        }
      ],
      "name": "WithdrawalBreaker",
      "type": "event"
    },
    {
      "stateMutability": "payable",
      "type": "fallback",
      "payable": true
    },
    {
      "inputs": [],
      "name": "destroy",
      "outputs": [],
      "stateMutability": "nonpayable",
      "type": "function"
    },
    {
      "inputs": [],
      "name": "owner",
      "outputs": [
        {
          "internalType": "address payable",
          "name": "",
          "type": "address"
        }
      ],
      "stateMutability": "view",
      "type": "function",
      "constant": true
    },
    {
      "inputs": [
        {
          "internalType": "address",
          "name": "",
          "type": "address"
        }
      ],
      "name": "player",
      "outputs": [
        {
          "internalType": "address payable",
          "name": "wallet",
          "type": "address"
        },
        {
          "internalType": "uint256",
          "name": "playerId",
          "type": "uint256"
        },
        {
          "internalType": "uint256",
          "name": "balance",
          "type": "uint256"
        },
        {
          "internalType": "uint256",
          "name": "placedBets",
          "type": "uint256"
        },
        {
          "internalType": "bool",
          "name": "isPlayer",
          "type": "bool"
        }
      ],
      "stateMutability": "view",
      "type": "function",
      "constant": true
    },
    {
      "stateMutability": "payable",
      "type": "receive",
      "payable": true
    },
    {
      "inputs": [],
      "name": "depositsCircuitBreaker",
      "outputs": [],
      "stateMutability": "nonpayable",
      "type": "function"
    },
    {
      "inputs": [],
      "name": "withdrawalCircuitBreaker",
      "outputs": [],
      "stateMutability": "nonpayable",
      "type": "function"
    },
    {
      "inputs": [],
      "name": "deposit",
      "outputs": [],
      "stateMutability": "payable",
      "type": "function",
      "payable": true
    },
    {
      "inputs": [
        {
          "internalType": "address payable",
          "name": "_to",
          "type": "address"
        }
      ],
      "name": "withdrawAll",
      "outputs": [],
      "stateMutability": "nonpayable",
      "type": "function"
    },
    {
      "inputs": [
        {
          "internalType": "address payable",
          "name": "_to",
          "type": "address"
        },
        {
          "internalType": "uint256",
          "name": "_withdrawalAmount",
          "type": "uint256"
        }
      ],
      "name": "withdrawBalance",
      "outputs": [],
      "stateMutability": "nonpayable",
      "type": "function"
    },
    {
      "inputs": [
        {
          "internalType": "uint256",
          "name": "_amount",
          "type": "uint256"
        }
      ],
      "name": "placeBet",
      "outputs": [],
      "stateMutability": "nonpayable",
      "type": "function"
    },
    {
      "inputs": [
        {
          "internalType": "uint256",
          "name": "_amount",
          "type": "uint256"
        }
      ],
      "name": "undoBet",
      "outputs": [],
      "stateMutability": "nonpayable",
      "type": "function"
    },
    {
      "inputs": [],
      "name": "getBalance",
      "outputs": [
        {
          "internalType": "uint256",
          "name": "",
          "type": "uint256"
        }
      ],
      "stateMutability": "view",
      "type": "function",
      "constant": true
    },
    {
      "inputs": [],
      "name": "getPlayerBalance",
      "outputs": [
        {
          "internalType": "uint256",
          "name": "",
          "type": "uint256"
        }
      ],
      "stateMutability": "view",
      "type": "function",
      "constant": true
    },
    {
      "inputs": [],
      "name": "getPlayerBets",
      "outputs": [
        {
          "internalType": "uint256",
          "name": "",
          "type": "uint256"
        }
      ],
      "stateMutability": "view",
      "type": "function",
      "constant": true
    }
  ],
  "bytecode": "0x60806040526000600360006101000a81548160ff0219169083151502179055506001600360016101000a81548160ff0219169083151502179055506001600360026101000a81548160ff02191690831515021790555034801561006157600080fd5b50336000806101000a81548173ffffffffffffffffffffffffffffffffffffffff021916908373ffffffffffffffffffffffffffffffffffffffff160217905550611663806100b16000396000f3fe6080604052600436106100c65760003560e01c806383197ef01161007f578063a1da5cbb11610059578063a1da5cbb146103b0578063c18f030d146103c7578063d0e30db0146103de578063fa09e630146103e85761013d565b806383197ef0146103075780638a4b1b481461031e5780638da5cb5b146103595761013d565b80630b01517c1461013f5780630cf20cc91461016a57806310fe7c48146101c557806312065fe01461020057806348a60b6c1461022b5780634c54e1b5146102565761013d565b3661013d57343373ffffffffffffffffffffffffffffffffffffffff1631101561013b576040517f08c379a000000000000000000000000000000000000000000000000000000000815260040180806020018281038252602d8152602001806115ca602d913960400191505060405180910390fd5b005b005b34801561014b57600080fd5b50610154610439565b6040518082815260200191505060405180910390f35b34801561017657600080fd5b506101c36004803603604081101561018d57600080fd5b81019080803573ffffffffffffffffffffffffffffffffffffffff169060200190929190803590602001909291905050506104e3565b005b3480156101d157600080fd5b506101fe600480360360208110156101e857600080fd5b810190808035906020019092919050505061072a565b005b34801561020c57600080fd5b50610215610902565b6040518082815260200191505060405180910390f35b34801561023757600080fd5b5061024061090a565b6040518082815260200191505060405180910390f35b34801561026257600080fd5b506102a56004803603602081101561027957600080fd5b81019080803573ffffffffffffffffffffffffffffffffffffffff1690602001909291905050506109b4565b604051808673ffffffffffffffffffffffffffffffffffffffff1673ffffffffffffffffffffffffffffffffffffffff168152602001858152602001848152602001838152602001821515151581526020019550505050505060405180910390f35b34801561031357600080fd5b5061031c610a17565b005b34801561032a57600080fd5b506103576004803603602081101561034157600080fd5b8101908080359060200190929190505050610af6565b005b34801561036557600080fd5b5061036e610ccf565b604051808273ffffffffffffffffffffffffffffffffffffffff1673ffffffffffffffffffffffffffffffffffffffff16815260200191505060405180910390f35b3480156103bc57600080fd5b506103c5610cf4565b005b3480156103d357600080fd5b506103dc610e27565b005b6103e6610f5a565b005b3480156103f457600080fd5b506104376004803603602081101561040b57600080fd5b81019080803573ffffffffffffffffffffffffffffffffffffffff1690602001909291905050506110b0565b005b600060011515600260003373ffffffffffffffffffffffffffffffffffffffff1673ffffffffffffffffffffffffffffffffffffffff16815260200190815260200160002060040160009054906101000a900460ff1615151461049b57600080fd5b600260003373ffffffffffffffffffffffffffffffffffffffff1673ffffffffffffffffffffffffffffffffffffffff16815260200190815260200160002060020154905090565b60011515600260003373ffffffffffffffffffffffffffffffffffffffff1673ffffffffffffffffffffffffffffffffffffffff16815260200190815260200160002060040160009054906101000a900460ff1615151461054357600080fd5b60011515600360029054906101000a900460ff1615151461056357600080fd5b600360009054906101000a900460ff161561057d57600080fd5b6000600260003373ffffffffffffffffffffffffffffffffffffffff1673ffffffffffffffffffffffffffffffffffffffff168152602001908152602001600020600201549050818110156105d157600080fd5b81600260003373ffffffffffffffffffffffffffffffffffffffff1673ffffffffffffffffffffffffffffffffffffffff168152602001908152602001600020600201600082825403925050819055506001600360006101000a81548160ff0219169083151502179055508273ffffffffffffffffffffffffffffffffffffffff166108fc839081150290604051600060405180830381858888f19350505050158015610682573d6000803e3d6000fd5b506000600360006101000a81548160ff02191690831515021790555081600260003373ffffffffffffffffffffffffffffffffffffffff1673ffffffffffffffffffffffffffffffffffffffff168152602001908152602001600020600101543373ffffffffffffffffffffffffffffffffffffffff167ff279e6a1f5e320cca91135676d9cb6e44ca8a08c0b88342bcdb1144f6511b56860405160405180910390a4505050565b60011515600260003373ffffffffffffffffffffffffffffffffffffffff1673ffffffffffffffffffffffffffffffffffffffff16815260200190815260200160002060040160009054906101000a900460ff1615151461078a57600080fd5b80600260003373ffffffffffffffffffffffffffffffffffffffff1673ffffffffffffffffffffffffffffffffffffffff1681526020019081526020016000206002015410156107d957600080fd5b80600260003373ffffffffffffffffffffffffffffffffffffffff1673ffffffffffffffffffffffffffffffffffffffff1681526020019081526020016000206002016000828254039250508190555080600260003373ffffffffffffffffffffffffffffffffffffffff1673ffffffffffffffffffffffffffffffffffffffff1681526020019081526020016000206003016000828254019250508190555080600260003373ffffffffffffffffffffffffffffffffffffffff1673ffffffffffffffffffffffffffffffffffffffff168152602001908152602001600020600101543373ffffffffffffffffffffffffffffffffffffffff167e1ecf1d0c4d22f324b3ecb9cdf0e5f772bc74ac104e6626f4b3845433d0310560405160405180910390a450565b600047905090565b600060011515600260003373ffffffffffffffffffffffffffffffffffffffff1673ffffffffffffffffffffffffffffffffffffffff16815260200190815260200160002060040160009054906101000a900460ff1615151461096c57600080fd5b600260003373ffffffffffffffffffffffffffffffffffffffff1673ffffffffffffffffffffffffffffffffffffffff16815260200190815260200160002060030154905090565b60026020528060005260406000206000915090508060000160009054906101000a900473ffffffffffffffffffffffffffffffffffffffff16908060010154908060020154908060030154908060040160009054906101000a900460ff16905085565b6000809054906101000a900473ffffffffffffffffffffffffffffffffffffffff1673ffffffffffffffffffffffffffffffffffffffff163373ffffffffffffffffffffffffffffffffffffffff1614610abc576040517f08c379a00000000000000000000000000000000000000000000000000000000081526004018080602001828103825260378152602001806115f76037913960400191505060405180910390fd5b6000809054906101000a900473ffffffffffffffffffffffffffffffffffffffff1673ffffffffffffffffffffffffffffffffffffffff16ff5b60011515600260003373ffffffffffffffffffffffffffffffffffffffff1673ffffffffffffffffffffffffffffffffffffffff16815260200190815260200160002060040160009054906101000a900460ff16151514610b5657600080fd5b80600260003373ffffffffffffffffffffffffffffffffffffffff1673ffffffffffffffffffffffffffffffffffffffff168152602001908152602001600020600301541015610ba557600080fd5b80600260003373ffffffffffffffffffffffffffffffffffffffff1673ffffffffffffffffffffffffffffffffffffffff1681526020019081526020016000206003016000828254039250508190555080600260003373ffffffffffffffffffffffffffffffffffffffff1673ffffffffffffffffffffffffffffffffffffffff1681526020019081526020016000206002016000828254019250508190555080600260003373ffffffffffffffffffffffffffffffffffffffff1673ffffffffffffffffffffffffffffffffffffffff168152602001908152602001600020600101543373ffffffffffffffffffffffffffffffffffffffff167f4c7b5d04b7992ff125f033431c4ebf536e5e62bec91ac1f81267f0c579e3e8f360405160405180910390a450565b6000809054906101000a900473ffffffffffffffffffffffffffffffffffffffff1681565b6000809054906101000a900473ffffffffffffffffffffffffffffffffffffffff1673ffffffffffffffffffffffffffffffffffffffff163373ffffffffffffffffffffffffffffffffffffffff1614610d99576040517f08c379a00000000000000000000000000000000000000000000000000000000081526004018080602001828103825260378152602001806115f76037913960400191505060405180910390fd5b600080600360029054906101000a900460ff1615600360026101000a81548160ff021916908315150217905550600360029054906101000a900460ff1615610de8576001915060009050610df1565b60009150600190505b8015158215157f8eb4595c4dfb33fa2b81712a0012c0c09697aaf704be0e0ca466024fbd0f40cd60405160405180910390a35050565b6000809054906101000a900473ffffffffffffffffffffffffffffffffffffffff1673ffffffffffffffffffffffffffffffffffffffff163373ffffffffffffffffffffffffffffffffffffffff1614610ecc576040517f08c379a00000000000000000000000000000000000000000000000000000000081526004018080602001828103825260378152602001806115f76037913960400191505060405180910390fd5b600080600360019054906101000a900460ff1615600360016101000a81548160ff021916908315150217905550600360019054906101000a900460ff1615610f1b576001915060009050610f24565b60009150600190505b8015158215157f2de720a3f31cc0e3de4e7ec50c193b15b521397edf37e35dce1c4ccd1770980c60405160405180910390a35050565b60011515600360019054906101000a900460ff16151514610f7a57600080fd5b600260003373ffffffffffffffffffffffffffffffffffffffff1673ffffffffffffffffffffffffffffffffffffffff16815260200190815260200160002060040160009054906101000a900460ff16610fd757610fd6611394565b5b34600260003373ffffffffffffffffffffffffffffffffffffffff1673ffffffffffffffffffffffffffffffffffffffff1681526020019081526020016000206002016000828254019250508190555034600260003373ffffffffffffffffffffffffffffffffffffffff1673ffffffffffffffffffffffffffffffffffffffff168152602001908152602001600020600101543373ffffffffffffffffffffffffffffffffffffffff167f90890809c654f11d6e72a28fa60149770a0d11ec6c92319d6ceb2bb0a4ea1a1560405160405180910390a4565b60011515600260003373ffffffffffffffffffffffffffffffffffffffff1673ffffffffffffffffffffffffffffffffffffffff16815260200190815260200160002060040160009054906101000a900460ff1615151461111057600080fd5b60011515600360029054906101000a900460ff1615151461113057600080fd5b6000600260003373ffffffffffffffffffffffffffffffffffffffff1673ffffffffffffffffffffffffffffffffffffffff16815260200190815260200160002060030154600260003373ffffffffffffffffffffffffffffffffffffffff1673ffffffffffffffffffffffffffffffffffffffff168152602001908152602001600020600201540190506000811015611232576040517f08c379a000000000000000000000000000000000000000000000000000000000815260040180806020018281038252601a8152602001807f43616e6e6f742070726f63657373207468697320616d6f756e7400000000000081525060200191505060405180910390fd5b6000600260003373ffffffffffffffffffffffffffffffffffffffff1673ffffffffffffffffffffffffffffffffffffffff168152602001908152602001600020600201819055506000600260003373ffffffffffffffffffffffffffffffffffffffff1673ffffffffffffffffffffffffffffffffffffffff168152602001908152602001600020600301819055508173ffffffffffffffffffffffffffffffffffffffff166108fc829081150290604051600060405180830381858888f19350505050158015611308573d6000803e3d6000fd5b5080600260003373ffffffffffffffffffffffffffffffffffffffff1673ffffffffffffffffffffffffffffffffffffffff168152602001908152602001600020600101543373ffffffffffffffffffffffffffffffffffffffff167ff279e6a1f5e320cca91135676d9cb6e44ca8a08c0b88342bcdb1144f6511b56860405160405180910390a45050565b60001515600260003373ffffffffffffffffffffffffffffffffffffffff1673ffffffffffffffffffffffffffffffffffffffff16815260200190815260200160002060040160009054906101000a900460ff16151514611440576040517f08c379a00000000000000000000000000000000000000000000000000000000081526004018080602001828103825260248152602001806115a66024913960400191505060405180910390fd5b6040518060a001604052803373ffffffffffffffffffffffffffffffffffffffff1681526020016001548152602001600081526020016000815260200160011515815250600260003373ffffffffffffffffffffffffffffffffffffffff1673ffffffffffffffffffffffffffffffffffffffff16815260200190815260200160002060008201518160000160006101000a81548173ffffffffffffffffffffffffffffffffffffffff021916908373ffffffffffffffffffffffffffffffffffffffff16021790555060208201518160010155604082015181600201556060820151816003015560808201518160040160006101000a81548160ff0219169083151502179055509050506001543373ffffffffffffffffffffffffffffffffffffffff167f6b8fe0f067804a78a12efa88b8428446c8d8a703d5604dffc63ac27fcbdcfd0d60405160405180910390a360016000815480929190600101919050555056fe6164647265737320616c7265616479207265676973746572656420617320706c61796572496e73756666696369656e742062616c616e636520746f20636f6d706c657465207472616e73616374696f6e2e4f6e6c7920746865206f776e6572206f66207468697320636f6e74726163742063616e2063616c6c20746869732066756e6374696f6e2ea26469706673582212207969cc64a089abf375864c74ffd349c4dab5887e6bf056da5f470eddfdf1802a64736f6c63430006060033",
  "immutableReferences": {},
  "source": "pragma solidity >=0.6.2 <0.8.0;\n//SPDX-License-Identifier: UNLICENSED\n\n//import \"github.com/Arachnid/solidity-stringutils/strings.sol\";\nimport \"./Player.sol\";\n\n/**\n * @title determines owner of deployed contract\n * @dev This contract initialises the deploying address as the owner of this contract.\n */\ncontract Owned{\n  address payable public owner;\n\n  constructor() public{\n    owner = msg.sender;\n  }\n\n  /**\n   * @dev Access control Modifier\n   */\n  modifier onlyOwner() {\n    require(msg.sender == owner,\n            \"Only the owner of this contract can call this function.\");\n    _;\n  }\n}\n\n\n/**\n * @title Determines mortality of  \n * @dev This contract can destroy all extended contracts.\n * @dev onlyOwner modifier restricts access to owner declared in Owned.\n */\ncontract Mortal is Owned{\n\n  /**\n   * @notice destroys and removes contracts from blockchain.\n   * @dev restricted to contract owner.\n   * @dev all funds deposited to contract will be returned to owner should this be called.\n   * @dev plans to implement a countdown to give players time to withdraw funds before contract destruction.\n   */\n  function destroy() public onlyOwner {\n    selfdestruct(owner);\n  }\n}\n\n\n/**\n * @title Lucky Duckys - a betting platform.\n * @author Maccs Universal.\n * @notice Simple and fun contract created to give users the opportunity to win some Eth.\n * @dev All function calls are currently implemented without side effects.\n */\ncontract Slot_Machine is Mortal, GamePlayer{\n\n\n  //S T A T E - V A R I A B L E S\n\n  bool private reEntrancyMutex = false;\n  bool private enableDeposits = true;\n  bool private enableWithdrawals = true;\n\n\n  /**\n   * @notice Deposit event.\n   * @dev Event is triggered when a player makes a deposit \n   * @param _player is the address of new player.\n   * @param _Id uint that represents player as a number.\n   * @param _amount of ETH deposited to contract.\n   */\n  event Deposit(address indexed _player, uint indexed _Id, uint indexed _amount);\n  \n  /**\n   * @notice Withdraw event.\n   * @dev event triggered by withdrawal of funds from contract.\n   * @param _player is the address of new player.\n   * @param _Id uint that represents player as a number.\n   * @param _amount of ETH withdrawn from contract.\n   */\n  event Withdraw(address indexed _player, uint indexed _Id, uint indexed _amount);\n  \n  /**\n   * @notice an event for when a bet is placed.\n   * @dev event triggered when a player moves funds from their balance to placedBets indicating a bet being raised.\n   * @param _player is the address of new player.\n   * @param _Id uint that represents player as a number.\n   * @param _amount of ETH moved from balance to placedBets.\n   */\n  event BetPlaced(address indexed _player, uint indexed _Id, uint indexed _amount);\n  \n  /**\n   * @notice an event for when an amount of ETH in bets is moved back to the players balance.\n   * @dev event triggered when a player moves funds from their placedBets to balance.\n   * @param _player is the address of new player.\n   * @param _Id uint that represents player as a number.\n   * @param _amount of ETH moved from placedBets to balance.\n   */\n  event UndoneBets(address indexed _player, uint indexed _Id, uint indexed _amount);\n  \n  /**\n   * @notice event for when withdrawals are disabled/enabled.\n   * @dev event triggered when owner disables/enables withdrawals in an emergency.\n   * @param _on indicates the circuit breaker is active and withdrawals have been disabled.\n   * @param _off indicates the circuit breaker is inactive and withdrawals are enabled.\n   */\n  event WithdrawalBreaker(bool indexed _on, bool indexed _off);\n  \n  /**\n   * @notice event for when deposits are disabled/enabled.\n   * @dev event triggered when owner disables/enables deposits in an emergency.\n   * @param _on indicates the circuit breaker is active and deposits have been disabled.\n   * @param _off indicates the circuit breaker is inactive and deposits are enabled.\n   */\n  event DepositBreaker(bool indexed _on, bool indexed _off);\n  \n\n  /**\n   * @notice restricts access to parts of the game to non-registered players.\n   * @dev to ensure only registered players can access specific functions\n   */\n  modifier onlyPlayer(){\n    require(player[msg.sender].isPlayer == true);\n    _;\n  }\n    \n  /**\n   * @notice stops deposits if active.\n   * @dev checks to see if deposit circuit breaker is enabled, in which case the deposit function will not execute.\n   */\n  modifier depositsEnabled(){\n    require(enableDeposits == true);\n    _;\n  }\n\n  /**\n   * @notice stops withdrawals if active.\n   * @dev checks to see if withdrawals circuit break is enabled, in which case the withdrawBalance/withdrawAll functions will not execute.\n   */\n  modifier withdrawalsEnabled(){\n    require(enableWithdrawals == true);\n    _;\n  }\n\n  constructor() public {}\n\n  /**\n   * @notice disables/enables deposits.\n   * @dev circuit breaker to disable the deposit function. Can only be accessed by contract owner.\n   */\n  function depositsCircuitBreaker() public onlyOwner(){\n    bool _on;\n    bool _off;\n    enableDeposits = !enableDeposits;\n    if(enableDeposits){\n      _on = true;\n      _off = false;\n    } else {\n      _on = false;\n      _off = true;\n    }\n    emit DepositBreaker(_on, _off);\n  }\n\n  /**\n   * @notice disables/enables deposits.\n   * @dev circuit breaker to disable the deposit function. Can only be accessed by contract owner.\n   */\n  function withdrawalCircuitBreaker() public onlyOwner(){\n    bool _on;\n    bool _off;\n    enableWithdrawals = !enableWithdrawals;\n    if(enableWithdrawals){\n      _on = true;\n      _off = false;\n    } else {\n      _on = false;\n      _off = true;\n    }\n    emit WithdrawalBreaker(_on, _off);\n  }\n\n  /**\n   * @notice Use this to deposit some ETH to contract, register as a new player and increase your balance.\n   * @dev depositsEnabled - whilst enableDeposits is true this function will remain active.\n   * @dev if player is already registered only players balance with be increaed.\n   */\n  function deposit() external payable depositsEnabled(){\n    if(!player[msg.sender].isPlayer){\n      newPlayer(); \n    }\n    player[msg.sender].balance += msg.value;\n    emit Deposit(msg.sender,player[msg.sender].playerId,msg.value);\n  } \n\n  /**\n   * @notice Use this to withdraw all funds from the contract.\n   * @dev Not sure we actually need the playerCount state variable or the struct variable playerId.\n   * @dev modifier onlyPlayer allows only active players to call withdrawal methods.\n   * @dev modifier withdrawalsEnabled - whilst enableWithdrawals is true this function will remain active. \n   * @param _to is the EOA or Contract funds are to be withdrawn to.\n   */\n  function withdrawAll(address payable _to) public onlyPlayer() withdrawalsEnabled(){\n    uint availableAmount = player[msg.sender].balance + player[msg.sender].placedBets;\n    require(availableAmount >= 0, \"Cannot process this amount\");\n    player[msg.sender].balance = 0;\n    player[msg.sender].placedBets = 0;\n    _to.transfer(availableAmount);\n    emit Withdraw(msg.sender, player[msg.sender].playerId, availableAmount);\n  } \n\n  /**\n   * @notice Use this to withdraw balance from the contract that corresponds to the value or less than the players balance.\n   * @dev Not sure we actually need the playerCount state variable or the struct variable playerId.\n   * @dev modifier onlyPlayer allows only active players to call withdrawal methods.\n   * @dev modifier withdrawalsEnabled - whilst enableWithdrawals is true this function will remain active. \n   * @param _to is the EOA or Contract funds are to be withdrawn to.\n   * @param _withdrawalAmount is the value amount to be withdrawn.\n   */\n  function withdrawBalance(address payable _to, uint _withdrawalAmount) public onlyPlayer() withdrawalsEnabled(){\n    require(!reEntrancyMutex);\n    uint availableAmount = player[msg.sender].balance;\n    require(availableAmount >= _withdrawalAmount);\n    player[msg.sender].balance -= _withdrawalAmount;\n    reEntrancyMutex = true;\n    _to.transfer(_withdrawalAmount);\n    reEntrancyMutex = false;\n    emit Withdraw(msg.sender, player[msg.sender].playerId, _withdrawalAmount);\n  } \n\n  /**@notice Use this to place bets.\n   * @dev modifier onlyPlayer allows only active players to call this function.\n   * @param _amount is the value amount to place a bet with.\n   */\n  function placeBet(uint _amount) public onlyPlayer() {\n    require(player[msg.sender].balance >= _amount);\n    player[msg.sender].balance -= _amount;\n    player[msg.sender].placedBets += _amount;\n    emit BetPlaced(msg.sender, player[msg.sender].playerId, _amount);\n  }\n\n  /**\n   * @notice Use this to dynamically undo placed bets.\n   * @dev modifier onlyPlayer allows only active players to call this function.\n   * @param _amount is the value amount to remove from placedBets.\n   */\n  function undoBet(uint _amount) public onlyPlayer() {\n    require(player[msg.sender].placedBets >= _amount);\n    player[msg.sender].placedBets -= _amount;\n    player[msg.sender].balance += _amount;\n    emit UndoneBets(msg.sender, player[msg.sender].playerId, _amount);\n  }\n\n\n  /**\n   * @notice current balance of this contract.\n   * @dev returns the current ETH balance of this contract.\n   * @dev balance will be returned in Wei.\n   */\n  function getBalance() public view returns(uint) {\n    return address(this).balance;\n  }\n  \n  /**\n   * @notice current balance of player.\n   * @dev will only return balance of registered player.\n   * @dev onlyPlayer restricts access to players only.\n   * @dev uint will return balance in Wei.\n   */\n  function getPlayerBalance() public onlyPlayer() view returns(uint){\n      return player[msg.sender].balance;\n  }\n  \n  /**\n   * @notice current bets raised by player.\n   * @dev will only return placedBets of registered player.\n   * @dev onlyPlayer restricts access to players only.\n   * @dev uint will return bets in Wei.\n   */\n  function getPlayerBets() public onlyPlayer() view returns(uint){\n      return player[msg.sender].placedBets;\n  }\n\n  fallback () external payable{}\n\n  receive () external payable{\n    require(msg.sender.balance >= msg.value,\n          \"Insufficient balance to complete transaction.\");\n  }\n\n}\n",
  "sourcePath": "/home/moses/Desktop/Lucky Ducky/contracts/Slot_Machine.sol",
  "compiler": {
    "name": "solc",
    "version": "0.6.6+commit.6c089d02.Emscripten.clang"
  },
  "schemaVersion": "3.3.3",
  "updatedAt": "2021-06-18T20:35:57.402Z",
  "networkType": "ethereum",
  "devdoc": {
    "author": "Maccs Universal.",
    "details": "All function calls are currently implemented without side effects.",
    "methods": {
      "deposit()": {
        "details": "depositsEnabled - whilst enableDeposits is true this function will remain active.if player is already registered only players balance with be increaed."
      },
      "depositsCircuitBreaker()": {
        "details": "circuit breaker to disable the deposit function. Can only be accessed by contract owner."
      },
      "destroy()": {
        "details": "restricted to contract owner.all funds deposited to contract will be returned to owner should this be called.plans to implement a countdown to give players time to withdraw funds before contract destruction."
      },
      "getBalance()": {
        "details": "returns the current ETH balance of this contract.balance will be returned in Wei."
      },
      "getPlayerBalance()": {
        "details": "will only return balance of registered player.onlyPlayer restricts access to players only.uint will return balance in Wei."
      },
      "getPlayerBets()": {
        "details": "will only return placedBets of registered player.onlyPlayer restricts access to players only.uint will return bets in Wei."
      },
      "placeBet(uint256)": {
        "details": "modifier onlyPlayer allows only active players to call this function.",
        "params": {
          "_amount": "is the value amount to place a bet with."
        }
      },
      "undoBet(uint256)": {
        "details": "modifier onlyPlayer allows only active players to call this function.",
        "params": {
          "_amount": "is the value amount to remove from placedBets."
        }
      },
      "withdrawAll(address)": {
        "details": "Not sure we actually need the playerCount state variable or the struct variable playerId.modifier onlyPlayer allows only active players to call withdrawal methods.modifier withdrawalsEnabled - whilst enableWithdrawals is true this function will remain active. ",
        "params": {
          "_to": "is the EOA or Contract funds are to be withdrawn to."
        }
      },
      "withdrawBalance(address,uint256)": {
        "details": "Not sure we actually need the playerCount state variable or the struct variable playerId.modifier onlyPlayer allows only active players to call withdrawal methods.modifier withdrawalsEnabled - whilst enableWithdrawals is true this function will remain active. ",
        "params": {
          "_to": "is the EOA or Contract funds are to be withdrawn to.",
          "_withdrawalAmount": "is the value amount to be withdrawn."
        }
      },
      "withdrawalCircuitBreaker()": {
        "details": "circuit breaker to disable the deposit function. Can only be accessed by contract owner."
      }
    },
    "title": "Lucky Duckys - a betting platform."
  },
  "userdoc": {
    "methods": {
      "deposit()": {
        "notice": "Use this to deposit some ETH to contract, register as a new player and increase your balance."
      },
      "depositsCircuitBreaker()": {
        "notice": "disables/enables deposits."
      },
      "destroy()": {
        "notice": "destroys and removes contracts from blockchain."
      },
      "getBalance()": {
        "notice": "current balance of this contract."
      },
      "getPlayerBalance()": {
        "notice": "current balance of player."
      },
      "getPlayerBets()": {
        "notice": "current bets raised by player."
      },
      "placeBet(uint256)": {
        "notice": "Use this to place bets."
      },
      "undoBet(uint256)": {
        "notice": "Use this to dynamically undo placed bets."
      },
      "withdrawAll(address)": {
        "notice": "Use this to withdraw all funds from the contract."
      },
      "withdrawBalance(address,uint256)": {
        "notice": "Use this to withdraw balance from the contract that corresponds to the value or less than the players balance."
      },
      "withdrawalCircuitBreaker()": {
        "notice": "disables/enables deposits."
      }
    },
    "notice": "Simple and fun contract created to give users the opportunity to win some Eth."
  }
}