{
  "contractName": "Slot_Machine",
  "abi": [
    {
      "inputs": [],
      "stateMutability": "nonpayable",
      "type": "constructor"
    },
    {
      "anonymous": false,
      "inputs": [
        {
          "indexed": true,
          "internalType": "address",
          "name": "player",
          "type": "address"
        },
        {
          "indexed": true,
          "internalType": "uint256",
          "name": "Id",
          "type": "uint256"
        },
        {
          "indexed": true,
          "internalType": "uint256",
          "name": "amount",
          "type": "uint256"
        }
      ],
      "name": "BetPlaced",
      "type": "event"
    },
    {
      "anonymous": false,
      "inputs": [
        {
          "indexed": true,
          "internalType": "address",
          "name": "player",
          "type": "address"
        },
        {
          "indexed": true,
          "internalType": "uint256",
          "name": "Id",
          "type": "uint256"
        },
        {
          "indexed": true,
          "internalType": "uint256",
          "name": "amount",
          "type": "uint256"
        }
      ],
      "name": "Deposit",
      "type": "event"
    },
    {
      "anonymous": false,
      "inputs": [
        {
          "indexed": true,
          "internalType": "bool",
          "name": "on",
          "type": "bool"
        },
        {
          "indexed": true,
          "internalType": "bool",
          "name": "off",
          "type": "bool"
        }
      ],
      "name": "DepositBreaker",
      "type": "event"
    },
    {
      "anonymous": false,
      "inputs": [
        {
          "indexed": true,
          "internalType": "address",
          "name": "from",
          "type": "address"
        },
        {
          "indexed": false,
          "internalType": "string",
          "name": "message",
          "type": "string"
        },
        {
          "indexed": false,
          "internalType": "uint256",
          "name": "guess",
          "type": "uint256"
        },
        {
          "indexed": false,
          "internalType": "uint256",
          "name": "random_number",
          "type": "uint256"
        },
        {
          "indexed": false,
          "internalType": "uint256",
          "name": "deposit",
          "type": "uint256"
        },
        {
          "indexed": false,
          "internalType": "uint256",
          "name": "winnings",
          "type": "uint256"
        }
      ],
      "name": "Message",
      "type": "event"
    },
    {
      "anonymous": false,
      "inputs": [
        {
          "indexed": true,
          "internalType": "address",
          "name": "from",
          "type": "address"
        },
        {
          "indexed": false,
          "internalType": "uint256",
          "name": "myguess",
          "type": "uint256"
        }
      ],
      "name": "MyGuess",
      "type": "event"
    },
    {
      "anonymous": false,
      "inputs": [
        {
          "indexed": true,
          "internalType": "address",
          "name": "player",
          "type": "address"
        },
        {
          "indexed": true,
          "internalType": "uint256",
          "name": "playerId",
          "type": "uint256"
        }
      ],
      "name": "NewPlayer",
      "type": "event"
    },
    {
      "anonymous": false,
      "inputs": [
        {
          "indexed": true,
          "internalType": "address",
          "name": "player",
          "type": "address"
        },
        {
          "indexed": true,
          "internalType": "uint256",
          "name": "Id",
          "type": "uint256"
        },
        {
          "indexed": true,
          "internalType": "uint256",
          "name": "amount",
          "type": "uint256"
        }
      ],
      "name": "UndoneBets",
      "type": "event"
    },
    {
      "anonymous": false,
      "inputs": [
        {
          "indexed": true,
          "internalType": "address",
          "name": "winner",
          "type": "address"
        },
        {
          "indexed": true,
          "internalType": "uint256",
          "name": "winningNumber",
          "type": "uint256"
        }
      ],
      "name": "Winner",
      "type": "event"
    },
    {
      "anonymous": false,
      "inputs": [
        {
          "indexed": true,
          "internalType": "address",
          "name": "player",
          "type": "address"
        },
        {
          "indexed": true,
          "internalType": "uint256",
          "name": "Id",
          "type": "uint256"
        },
        {
          "indexed": true,
          "internalType": "uint256",
          "name": "amount",
          "type": "uint256"
        }
      ],
      "name": "Withdraw",
      "type": "event"
    },
    {
      "anonymous": false,
      "inputs": [
        {
          "indexed": true,
          "internalType": "bool",
          "name": "on",
          "type": "bool"
        },
        {
          "indexed": true,
          "internalType": "bool",
          "name": "off",
          "type": "bool"
        }
      ],
      "name": "WithdrawalBreaker",
      "type": "event"
    },
    {
      "stateMutability": "payable",
      "type": "fallback",
      "payable": true
    },
    {
      "inputs": [],
      "name": "destroy",
      "outputs": [],
      "stateMutability": "nonpayable",
      "type": "function"
    },
    {
      "inputs": [],
      "name": "owner",
      "outputs": [
        {
          "internalType": "address payable",
          "name": "",
          "type": "address"
        }
      ],
      "stateMutability": "view",
      "type": "function",
      "constant": true
    },
    {
      "inputs": [
        {
          "internalType": "address",
          "name": "",
          "type": "address"
        }
      ],
      "name": "player",
      "outputs": [
        {
          "internalType": "address payable",
          "name": "wallet",
          "type": "address"
        },
        {
          "internalType": "uint256",
          "name": "playerId",
          "type": "uint256"
        },
        {
          "internalType": "uint256",
          "name": "balance",
          "type": "uint256"
        },
        {
          "internalType": "uint256",
          "name": "placedBets",
          "type": "uint256"
        },
        {
          "internalType": "uint256",
          "name": "winRatio",
          "type": "uint256"
        },
        {
          "internalType": "bool",
          "name": "isPlayer",
          "type": "bool"
        }
      ],
      "stateMutability": "view",
      "type": "function",
      "constant": true
    },
    {
      "inputs": [],
      "name": "playerCount",
      "outputs": [
        {
          "internalType": "uint256",
          "name": "",
          "type": "uint256"
        }
      ],
      "stateMutability": "view",
      "type": "function",
      "constant": true
    },
    {
      "stateMutability": "payable",
      "type": "receive",
      "payable": true
    },
    {
      "inputs": [],
      "name": "depositsCircuitBreaker",
      "outputs": [],
      "stateMutability": "nonpayable",
      "type": "function"
    },
    {
      "inputs": [],
      "name": "withdrawalCircuitBreaker",
      "outputs": [],
      "stateMutability": "nonpayable",
      "type": "function"
    },
    {
      "inputs": [],
      "name": "deposit",
      "outputs": [],
      "stateMutability": "payable",
      "type": "function",
      "payable": true
    },
    {
      "inputs": [
        {
          "internalType": "address payable",
          "name": "_to",
          "type": "address"
        }
      ],
      "name": "withdrawAll",
      "outputs": [],
      "stateMutability": "nonpayable",
      "type": "function"
    },
    {
      "inputs": [
        {
          "internalType": "address payable",
          "name": "_to",
          "type": "address"
        },
        {
          "internalType": "uint256",
          "name": "_withdrawalAmount",
          "type": "uint256"
        }
      ],
      "name": "withdrawBalance",
      "outputs": [],
      "stateMutability": "nonpayable",
      "type": "function"
    },
    {
      "inputs": [
        {
          "internalType": "uint256",
          "name": "amount",
          "type": "uint256"
        }
      ],
      "name": "placeBet",
      "outputs": [],
      "stateMutability": "nonpayable",
      "type": "function"
    },
    {
      "inputs": [
        {
          "internalType": "uint256",
          "name": "amount",
          "type": "uint256"
        }
      ],
      "name": "undoBet",
      "outputs": [],
      "stateMutability": "nonpayable",
      "type": "function"
    },
    {
      "inputs": [],
      "name": "getBalance",
      "outputs": [
        {
          "internalType": "uint256",
          "name": "",
          "type": "uint256"
        }
      ],
      "stateMutability": "view",
      "type": "function",
      "constant": true
    }
  ],
  "bytecode": "0x60806040526000600260006101000a81548160ff0219169083151502179055506001600260016101000a81548160ff02191690831515021790555060016002806101000a81548160ff02191690831515021790555034801561006057600080fd5b50336000806101000a81548173ffffffffffffffffffffffffffffffffffffffff021916908373ffffffffffffffffffffffffffffffffffffffff160217905550611329806100b06000396000f3fe6080604052600436106100ab5760003560e01c80638a4b1b48116100645780638a4b1b48146102c75780638da5cb5b14610302578063a1da5cbb14610343578063c18f030d1461035a578063d0e30db014610371578063fa09e6301461037b57610122565b80630cf20cc91461012457806310fe7c481461017f57806312065fe0146101ba578063302bcc57146101e55780634c54e1b51461021057806383197ef0146102b057610122565b3661012257343373ffffffffffffffffffffffffffffffffffffffff16311015610120576040517f08c379a000000000000000000000000000000000000000000000000000000000815260040180806020018281038252602d815260200180611290602d913960400191505060405180910390fd5b005b005b34801561013057600080fd5b5061017d6004803603604081101561014757600080fd5b81019080803573ffffffffffffffffffffffffffffffffffffffff169060200190929190803590602001909291905050506103cc565b005b34801561018b57600080fd5b506101b8600480360360208110156101a257600080fd5b81019080803590602001909291905050506105c1565b005b3480156101c657600080fd5b506101cf610799565b6040518082815260200191505060405180910390f35b3480156101f157600080fd5b506101fa6107a1565b6040518082815260200191505060405180910390f35b34801561021c57600080fd5b5061025f6004803603602081101561023357600080fd5b81019080803573ffffffffffffffffffffffffffffffffffffffff1690602001909291905050506107a7565b604051808773ffffffffffffffffffffffffffffffffffffffff1681526020018681526020018581526020018481526020018381526020018215158152602001965050505050505060405180910390f35b3480156102bc57600080fd5b506102c5610810565b005b3480156102d357600080fd5b50610300600480360360208110156102ea57600080fd5b81019080803590602001909291905050506108ed565b005b34801561030e57600080fd5b50610317610ac6565b604051808273ffffffffffffffffffffffffffffffffffffffff16815260200191505060405180910390f35b34801561034f57600080fd5b50610358610aea565b005b34801561036657600080fd5b5061036f610c17565b005b610379610d47565b005b34801561038757600080fd5b506103ca6004803603602081101561039e57600080fd5b81019080803573ffffffffffffffffffffffffffffffffffffffff169060200190929190505050610e9d565b005b60011515600460003373ffffffffffffffffffffffffffffffffffffffff1673ffffffffffffffffffffffffffffffffffffffff16815260200190815260200160002060050160009054906101000a900460ff1615151461042c57600080fd5b6001151560028054906101000a900460ff1615151461044a57600080fd5b6000600460003373ffffffffffffffffffffffffffffffffffffffff1673ffffffffffffffffffffffffffffffffffffffff1681526020019081526020016000206002015490508181101561049e57600080fd5b81600460003373ffffffffffffffffffffffffffffffffffffffff1673ffffffffffffffffffffffffffffffffffffffff168152602001908152602001600020600201600082825403925050819055508273ffffffffffffffffffffffffffffffffffffffff166108fc839081150290604051600060405180830381858888f19350505050158015610534573d6000803e3d6000fd5b5081600460003373ffffffffffffffffffffffffffffffffffffffff1673ffffffffffffffffffffffffffffffffffffffff168152602001908152602001600020600101543373ffffffffffffffffffffffffffffffffffffffff167ff279e6a1f5e320cca91135676d9cb6e44ca8a08c0b88342bcdb1144f6511b56860405160405180910390a4505050565b60011515600460003373ffffffffffffffffffffffffffffffffffffffff1673ffffffffffffffffffffffffffffffffffffffff16815260200190815260200160002060050160009054906101000a900460ff1615151461062157600080fd5b80600460003373ffffffffffffffffffffffffffffffffffffffff1673ffffffffffffffffffffffffffffffffffffffff16815260200190815260200160002060020154101561067057600080fd5b80600460003373ffffffffffffffffffffffffffffffffffffffff1673ffffffffffffffffffffffffffffffffffffffff1681526020019081526020016000206002016000828254039250508190555080600460003373ffffffffffffffffffffffffffffffffffffffff1673ffffffffffffffffffffffffffffffffffffffff1681526020019081526020016000206003016000828254019250508190555080600460003373ffffffffffffffffffffffffffffffffffffffff1673ffffffffffffffffffffffffffffffffffffffff168152602001908152602001600020600101543373ffffffffffffffffffffffffffffffffffffffff167e1ecf1d0c4d22f324b3ecb9cdf0e5f772bc74ac104e6626f4b3845433d0310560405160405180910390a450565b600047905090565b60015481565b60046020528060005260406000206000915090508060000160009054906101000a900473ffffffffffffffffffffffffffffffffffffffff16908060010154908060020154908060030154908060040154908060050160009054906101000a900460ff16905086565b60008054906101000a900473ffffffffffffffffffffffffffffffffffffffff1673ffffffffffffffffffffffffffffffffffffffff163373ffffffffffffffffffffffffffffffffffffffff16146108b4576040517f08c379a00000000000000000000000000000000000000000000000000000000081526004018080602001828103825260378152602001806112bd6037913960400191505060405180910390fd5b60008054906101000a900473ffffffffffffffffffffffffffffffffffffffff1673ffffffffffffffffffffffffffffffffffffffff16ff5b60011515600460003373ffffffffffffffffffffffffffffffffffffffff1673ffffffffffffffffffffffffffffffffffffffff16815260200190815260200160002060050160009054906101000a900460ff1615151461094d57600080fd5b80600460003373ffffffffffffffffffffffffffffffffffffffff1673ffffffffffffffffffffffffffffffffffffffff16815260200190815260200160002060030154101561099c57600080fd5b80600460003373ffffffffffffffffffffffffffffffffffffffff1673ffffffffffffffffffffffffffffffffffffffff1681526020019081526020016000206003016000828254039250508190555080600460003373ffffffffffffffffffffffffffffffffffffffff1673ffffffffffffffffffffffffffffffffffffffff1681526020019081526020016000206002016000828254019250508190555080600460003373ffffffffffffffffffffffffffffffffffffffff1673ffffffffffffffffffffffffffffffffffffffff168152602001908152602001600020600101543373ffffffffffffffffffffffffffffffffffffffff167f4c7b5d04b7992ff125f033431c4ebf536e5e62bec91ac1f81267f0c579e3e8f360405160405180910390a450565b60008054906101000a900473ffffffffffffffffffffffffffffffffffffffff1681565b60008054906101000a900473ffffffffffffffffffffffffffffffffffffffff1673ffffffffffffffffffffffffffffffffffffffff163373ffffffffffffffffffffffffffffffffffffffff1614610b8e576040517f08c379a00000000000000000000000000000000000000000000000000000000081526004018080602001828103825260378152602001806112bd6037913960400191505060405180910390fd5b60008060028054906101000a900460ff16156002806101000a81548160ff02191690831515021790555060028054906101000a900460ff1615610bd8576001915060009050610be1565b60009150600190505b8015158215157f8eb4595c4dfb33fa2b81712a0012c0c09697aaf704be0e0ca466024fbd0f40cd60405160405180910390a35050565b60008054906101000a900473ffffffffffffffffffffffffffffffffffffffff1673ffffffffffffffffffffffffffffffffffffffff163373ffffffffffffffffffffffffffffffffffffffff1614610cbb576040517f08c379a00000000000000000000000000000000000000000000000000000000081526004018080602001828103825260378152602001806112bd6037913960400191505060405180910390fd5b600080600260019054906101000a900460ff1615600260016101000a81548160ff02191690831515021790555060028054906101000a900460ff1615610d08576001915060009050610d11565b60009150600190505b8015158215157f2de720a3f31cc0e3de4e7ec50c193b15b521397edf37e35dce1c4ccd1770980c60405160405180910390a35050565b60011515600260019054906101000a900460ff16151514610d6757600080fd5b600460003373ffffffffffffffffffffffffffffffffffffffff1673ffffffffffffffffffffffffffffffffffffffff16815260200190815260200160002060050160009054906101000a900460ff16610dc457610dc3611119565b5b34600460003373ffffffffffffffffffffffffffffffffffffffff1673ffffffffffffffffffffffffffffffffffffffff1681526020019081526020016000206002016000828254019250508190555034600460003373ffffffffffffffffffffffffffffffffffffffff1673ffffffffffffffffffffffffffffffffffffffff168152602001908152602001600020600101543373ffffffffffffffffffffffffffffffffffffffff167f90890809c654f11d6e72a28fa60149770a0d11ec6c92319d6ceb2bb0a4ea1a1560405160405180910390a4565b60011515600460003373ffffffffffffffffffffffffffffffffffffffff1673ffffffffffffffffffffffffffffffffffffffff16815260200190815260200160002060050160009054906101000a900460ff16151514610efd57600080fd5b6001151560028054906101000a900460ff16151514610f1b57600080fd5b6000600460003373ffffffffffffffffffffffffffffffffffffffff1673ffffffffffffffffffffffffffffffffffffffff16815260200190815260200160002060030154600460003373ffffffffffffffffffffffffffffffffffffffff1673ffffffffffffffffffffffffffffffffffffffff168152602001908152602001600020600201540190506000811015610fb457600080fd5b6000600460003373ffffffffffffffffffffffffffffffffffffffff1673ffffffffffffffffffffffffffffffffffffffff168152602001908152602001600020600201819055506000600460003373ffffffffffffffffffffffffffffffffffffffff1673ffffffffffffffffffffffffffffffffffffffff168152602001908152602001600020600301819055508173ffffffffffffffffffffffffffffffffffffffff166108fc600183029081150290604051600060405180830381858888f1935050505015801561108d573d6000803e3d6000fd5b5080600460003373ffffffffffffffffffffffffffffffffffffffff1673ffffffffffffffffffffffffffffffffffffffff168152602001908152602001600020600101543373ffffffffffffffffffffffffffffffffffffffff167ff279e6a1f5e320cca91135676d9cb6e44ca8a08c0b88342bcdb1144f6511b56860405160405180910390a45050565b6040518060c001604052803373ffffffffffffffffffffffffffffffffffffffff168152602001600154815260200160008152602001600081526020016000815260200160011515815250600460003373ffffffffffffffffffffffffffffffffffffffff1673ffffffffffffffffffffffffffffffffffffffff16815260200190815260200160002060008201518160000160006101000a81548173ffffffffffffffffffffffffffffffffffffffff021916908373ffffffffffffffffffffffffffffffffffffffff1602179055506020820151816001015560408201518160020155606082015181600301556080820151816004015560a08201518160050160006101000a81548160ff0219169083151502179055509050506001543373ffffffffffffffffffffffffffffffffffffffff167f6b8fe0f067804a78a12efa88b8428446c8d8a703d5604dffc63ac27fcbdcfd0d60405160405180910390a360016000815480929190600101919050555056fe496e73756666696369656e742062616c616e636520746f20636f6d706c657465207472616e73616374696f6e2e4f6e6c7920746865206f776e6572206f66207468697320636f6e74726163742063616e2063616c6c20746869732066756e6374696f6e2ea2646970667358221220cbb6c0b49fa0f5d96499cf3ef9a973d6877007825aa09f04bd457c97db16fd6e64736f6c634300060c0033",
  "immutableReferences": {},
  "source": "pragma solidity >=0.6.2 <0.8.0;\n//SPDX-License-Identifier: UNLICENSED\n\n//import \"github.com/Arachnid/solidity-stringutils/strings.sol\";\n\n//This contract sets the owner\ncontract Owned{\n  address payable public owner;\n\n  constructor() public{\n    owner = msg.sender;\n  }\n\n  //Access control Modifier\n  modifier onlyOwner() {\n    require(msg.sender == owner,\n            \"Only the owner of this contract can call this function.\");\n    _;\n  }\n}\n\ncontract Mortal is Owned{\n\n  function destroy() public onlyOwner {\n    selfdestruct(owner);\n  }\n}\n\n\n/// @title Lucky Duckys - a betting platform \n/// @author Maccs Universal\n/// @notice Simple and fun contract created to give users the opportunity to win some Eth.\n/// @dev All function calls are currently implemented without side effects\ncontract Slot_Machine is Mortal{\n\n  //S T A T E - V A R I A B L E S\n\n  // A struct type that defines state variables of a player.\n  struct Player{\n      address payable wallet;\n      uint playerId;\n      uint balance;\n      uint placedBets;\n      uint winRatio;\n      bool isPlayer;\n  }\n\n  uint public playerCount;\n\n  bool reEntrancyMutex = false;\n  bool enableDeposits = true;\n  bool enableWithdrawals = true;\n  bool isWinner;\n\n  //The random number returned from the generator.\n  uint randomNumber;\n\n\n  //M A P P I N G S\n  mapping (address => Player) public player;\n\n\n  //E V E N T S \n  event Winner(address indexed winner, uint indexed winningNumber);\n  event NewPlayer(address indexed player, uint indexed playerId);\n  event Deposit(address indexed player, uint indexed Id, uint indexed amount);\n  event Withdraw(address indexed player, uint indexed Id, uint indexed amount);\n  event BetPlaced(address indexed player, uint indexed Id, uint indexed amount);\n  event UndoneBets(address indexed player, uint indexed Id, uint indexed amount);\n  event WithdrawalBreaker(bool indexed on, bool indexed off);\n  event DepositBreaker(bool indexed on, bool indexed off);\n  event MyGuess(address indexed from, uint myguess);\n  event Message(address indexed from, string  message, uint guess, uint random_number, uint  deposit, uint  winnings);\n\n  // M O D I F I E R S\n  modifier onlyPlayer(){\n    require(player[msg.sender].isPlayer == true);\n    _;\n  }\n\n  modifier depositsEnabled(){\n    require(enableDeposits == true);\n    _;\n\n  }\n\n  modifier withdrawalsEnabled(){\n    require(enableWithdrawals == true);\n    _;\n  }\n\n  constructor() public {}\n\n  /// @dev circuit breaker to disable the deposit function.\n  function depositsCircuitBreaker() public onlyOwner(){\n    bool _on;\n    bool _off;\n    enableDeposits = !enableDeposits;\n    if(enableWithdrawals){\n      _on = true;\n      _off = false;\n    } else {\n      _on = false;\n      _off = true;\n    }\n    emit DepositBreaker(_on, _off);\n  }\n\n  /// @dev circuit breaker to disable the withdraw function.\n  function withdrawalCircuitBreaker() public onlyOwner(){\n    bool _on;\n    bool _off;\n    enableWithdrawals = !enableWithdrawals;\n    if(enableWithdrawals){\n      _on = true;\n      _off = false;\n    } else {\n      _on = false;\n      _off = true;\n    }\n    emit WithdrawalBreaker(_on, _off);\n  }\n\n\n  /// @notice Join as a new player by adding a new record to the players mapping.\n  /// @dev Not sure we actually need the playerCount state variable or the struct variable playerId.\n  function newPlayer() private{\n    player[msg.sender] = Player(msg.sender, playerCount, 0, 0, 0, true);\n    emit NewPlayer(msg.sender,playerCount);\n    playerCount++;\n  }\n\n\n  /// @notice Use this to deposit some ETH to contract and increase your balance.\n  /// @dev depositsEnabled - whilst enableDeposits is true this function will remain active.\n  function deposit() external payable depositsEnabled(){\n    if(!player[msg.sender].isPlayer){\n      newPlayer(); \n    }\n    player[msg.sender].balance += msg.value;\n    emit Deposit(msg.sender,player[msg.sender].playerId,msg.value);\n  } \n\n\n  /// @notice Use this to withdraw all funds from the contract..\n  /// @dev Not sure we actually need the playerCount state variable or the struct variable playerId.\n  /// @dev modifier onlyPlayer allows only active players to call withdrawal methods.\n  /// @dev modifier withdrawalsEnabled - whilst enableWithdrawals is true this function will remain active. \n  /// @param _to is the EOA or Contract funds are to be withdrawn to.\n  function withdrawAll(address payable _to) public onlyPlayer() withdrawalsEnabled(){\n    uint availableAmount = player[msg.sender].balance + player[msg.sender].placedBets;\n    require(availableAmount >= 0);\n    player[msg.sender].balance = 0;\n    player[msg.sender].placedBets = 0;\n    _to.transfer(availableAmount* 1 wei);\n    emit Withdraw(msg.sender, player[msg.sender].playerId, availableAmount);\n  } \n\n  /// @notice Use this to withdraw balance from the contract that correspond to the value or less than the players balance.\n  /// @dev Not sure we actually need the playerCount state variable or the struct variable playerId.\n  /// @dev modifier onlyPlayer allows only active players to call withdrawal methods.\n  /// @dev modifier withdrawalsEnabled - whilst enableWithdrawals is true this function will remain active. \n  /// @param _to is the EOA or Contract funds are to be withdrawn to.\n  /// @param _withdrawalAmount is the value amount to be withdrawn.\n  function withdrawBalance(address payable _to, uint _withdrawalAmount) public onlyPlayer() withdrawalsEnabled(){\n    uint availableAmount = player[msg.sender].balance;\n    require(availableAmount >= _withdrawalAmount);\n    player[msg.sender].balance -= _withdrawalAmount;\n    _to.transfer(_withdrawalAmount);\n    emit Withdraw(msg.sender, player[msg.sender].playerId, _withdrawalAmount);\n  } \n\n  /// @notice Use this to place bets.\n  /// @dev modifier onlyPlayer allows only active players to call this function.\n  /// @param amount is the value amount to place a bet with.\n  function placeBet(uint amount) public onlyPlayer() {\n    require(player[msg.sender].balance >= amount);\n    player[msg.sender].balance -= amount;\n    player[msg.sender].placedBets += amount;\n    emit BetPlaced(msg.sender, player[msg.sender].playerId, amount);\n  }\n\n  /// @notice Use this to dynamically undo placed bets.\n  /// @dev modifier onlyPlayer allows only active players to call this function.\n  /// @param amount is the value amount to remove from placedBets.\n  function undoBet(uint amount) public onlyPlayer() {\n    require(player[msg.sender].placedBets >= amount);\n    player[msg.sender].placedBets -= amount;\n    player[msg.sender].balance += amount;\n    emit UndoneBets(msg.sender, player[msg.sender].playerId, amount);\n  }\n\n  //Pay out double the players deposit if they guess correctly the randomly generated number.\n  function getBalance() public view returns(uint) {\n    return address(this).balance;\n  }\n\n  fallback () external payable{}\n\n  receive () external payable{\n    require(msg.sender.balance >= msg.value,\n          \"Insufficient balance to complete transaction.\");\n  }\n\n}\n",
  "sourcePath": "/home/moses/Desktop/Lucky Ducky/contracts/Slot_Machine.sol",
  "compiler": {
    "name": "solc",
    "version": "0.6.12+commit.27d51765.Emscripten.clang"
  },
  "schemaVersion": "3.3.3",
  "updatedAt": "2021-04-15T10:02:28.968Z",
  "networkType": "ethereum",
  "devdoc": {
    "author": "Maccs Universal",
    "details": "All function calls are currently implemented without side effects",
    "kind": "dev",
    "methods": {
      "deposit()": {
        "details": "depositsEnabled - whilst enableDeposits is true this function will remain active."
      },
      "depositsCircuitBreaker()": {
        "details": "circuit breaker to disable the deposit function."
      },
      "placeBet(uint256)": {
        "details": "modifier onlyPlayer allows only active players to call this function.",
        "params": {
          "amount": "is the value amount to place a bet with."
        }
      },
      "undoBet(uint256)": {
        "details": "modifier onlyPlayer allows only active players to call this function.",
        "params": {
          "amount": "is the value amount to remove from placedBets."
        }
      },
      "withdrawAll(address)": {
        "details": "Not sure we actually need the playerCount state variable or the struct variable playerId.modifier onlyPlayer allows only active players to call withdrawal methods.modifier withdrawalsEnabled - whilst enableWithdrawals is true this function will remain active. ",
        "params": {
          "_to": "is the EOA or Contract funds are to be withdrawn to."
        }
      },
      "withdrawBalance(address,uint256)": {
        "details": "Not sure we actually need the playerCount state variable or the struct variable playerId.modifier onlyPlayer allows only active players to call withdrawal methods.modifier withdrawalsEnabled - whilst enableWithdrawals is true this function will remain active. ",
        "params": {
          "_to": "is the EOA or Contract funds are to be withdrawn to.",
          "_withdrawalAmount": "is the value amount to be withdrawn."
        }
      },
      "withdrawalCircuitBreaker()": {
        "details": "circuit breaker to disable the withdraw function."
      }
    },
    "title": "Lucky Duckys - a betting platform ",
    "version": 1
  },
  "userdoc": {
    "kind": "user",
    "methods": {
      "deposit()": {
        "notice": "Use this to deposit some ETH to contract and increase your balance."
      },
      "placeBet(uint256)": {
        "notice": "Use this to place bets."
      },
      "undoBet(uint256)": {
        "notice": "Use this to dynamically undo placed bets."
      },
      "withdrawAll(address)": {
        "notice": "Use this to withdraw all funds from the contract.."
      },
      "withdrawBalance(address,uint256)": {
        "notice": "Use this to withdraw balance from the contract that correspond to the value or less than the players balance."
      }
    },
    "notice": "Simple and fun contract created to give users the opportunity to win some Eth.",
    "version": 1
  }
}