{
  "contractName": "TestPlayer",
  "abi": [
    {
      "inputs": [],
      "stateMutability": "nonpayable",
      "type": "constructor"
    },
    {
      "anonymous": false,
      "inputs": [
        {
          "indexed": true,
          "internalType": "address",
          "name": "_player",
          "type": "address"
        },
        {
          "indexed": true,
          "internalType": "uint256",
          "name": "_playerId",
          "type": "uint256"
        }
      ],
      "name": "NewPlayer",
      "type": "event"
    },
    {
      "inputs": [],
      "name": "_playerCount",
      "outputs": [
        {
          "internalType": "uint256",
          "name": "",
          "type": "uint256"
        }
      ],
      "stateMutability": "view",
      "type": "function"
    },
    {
      "inputs": [],
      "name": "_registeredPlayer",
      "outputs": [
        {
          "internalType": "bool",
          "name": "",
          "type": "bool"
        }
      ],
      "stateMutability": "view",
      "type": "function"
    },
    {
      "inputs": [
        {
          "internalType": "address",
          "name": "",
          "type": "address"
        }
      ],
      "name": "player",
      "outputs": [
        {
          "internalType": "address payable",
          "name": "wallet",
          "type": "address"
        },
        {
          "internalType": "uint256",
          "name": "playerId",
          "type": "uint256"
        },
        {
          "internalType": "uint256",
          "name": "balance",
          "type": "uint256"
        },
        {
          "internalType": "uint256",
          "name": "placedBets",
          "type": "uint256"
        },
        {
          "internalType": "bool",
          "name": "isPlayer",
          "type": "bool"
        }
      ],
      "stateMutability": "view",
      "type": "function"
    },
    {
      "inputs": [],
      "name": "_newPlayer",
      "outputs": [],
      "stateMutability": "nonpayable",
      "type": "function"
    },
    {
      "inputs": [],
      "name": "getCounter",
      "outputs": [
        {
          "internalType": "uint256",
          "name": "",
          "type": "uint256"
        }
      ],
      "stateMutability": "view",
      "type": "function"
    },
    {
      "inputs": [],
      "name": "isPlayer",
      "outputs": [
        {
          "internalType": "bool",
          "name": "",
          "type": "bool"
        }
      ],
      "stateMutability": "view",
      "type": "function"
    }
  ],
  "bytecode": "0x608060405234801561001057600080fd5b5060006002819055506000600360006101000a81548160ff02191690831515021790555061044a806100436000396000f3fe608060405234801561001057600080fd5b50600436106100625760003560e01c80632f8ae71b146100675780634c54e1b514610089578063699c61fd1461012d57806376740de0146101375780638ada066e14610159578063dec4116014610177575b600080fd5b61006f610195565b604051808215151515815260200191505060405180910390f35b6100cb6004803603602081101561009f57600080fd5b81019080803573ffffffffffffffffffffffffffffffffffffffff1690602001909291905050506101a8565b604051808673ffffffffffffffffffffffffffffffffffffffff1673ffffffffffffffffffffffffffffffffffffffff168152602001858152602001848152602001838152602001821515151581526020019550505050505060405180910390f35b61013561020b565b005b61013f6103ed565b604051808215151515815260200191505060405180910390f35b610161610404565b6040518082815260200191505060405180910390f35b61017f61040e565b6040518082815260200191505060405180910390f35b600360009054906101000a900460ff1681565b60016020528060005260406000206000915090508060000160009054906101000a900473ffffffffffffffffffffffffffffffffffffffff16908060010154908060020154908060030154908060040160009054906101000a900460ff16905085565b60001515600160003373ffffffffffffffffffffffffffffffffffffffff1673ffffffffffffffffffffffffffffffffffffffff16815260200190815260200160002060040160009054906101000a900460ff16151514156103cf576040518060a001604052803373ffffffffffffffffffffffffffffffffffffffff1681526020016000548152602001600081526020016000815260200160011515815250600160003373ffffffffffffffffffffffffffffffffffffffff1673ffffffffffffffffffffffffffffffffffffffff16815260200190815260200160002060008201518160000160006101000a81548173ffffffffffffffffffffffffffffffffffffffff021916908373ffffffffffffffffffffffffffffffffffffffff16021790555060208201518160010155604082015181600201556060820151816003015560808201518160040160006101000a81548160ff0219169083151502179055509050506000543373ffffffffffffffffffffffffffffffffffffffff167f6b8fe0f067804a78a12efa88b8428446c8d8a703d5604dffc63ac27fcbdcfd0d60405160405180910390a36002600081548092919060010191905055506103eb565b6001600360006101000a81548160ff0219169083151502179055505b565b6000600360009054906101000a900460ff16905090565b6000600254905090565b6002548156fea2646970667358221220eebcbad241b86b36a36f82a0a2e6c4bb261a146b74c0d5d30de30575e8f33a0864736f6c63430006060033",
  "immutableReferences": {},
  "source": "pragma solidity >=0.6.2 <0.8.0;\n//SPDX-License-Identifier: UNLICENSED\n\n/**\n * @title Player Registry contract.\n * @author Macccs Universal\n * @notice This contract contains the criteria that makes up a new player\n * and outlines how new players are initiated and stored.\n * @dev All function calls are currently implemented without side effects.\n */\n\ncontract GamePlayer {\n\n  // A struct type that defines state variables of a player.\n  struct Player{\n      address payable wallet;\n      uint playerId;\n      uint balance;\n      uint placedBets;\n      bool isPlayer;\n  }\n\n  uint internal playerCount;\n\n  /**\n   * @notice map/list of player addresses.\n   */\n  mapping (address => Player) public player;\n\n  /**\n   * @notice new player event.\n   * @dev Event is triggered by the regisration of a new player. \n   * @param _player is the address of new player.\n   * @param _playerId uint that represents player as a number.\n   */\n  event NewPlayer(address indexed _player, uint indexed _playerId);\n  \n  constructor() public {}\n\n  /**@notice creates and registers a new player.\n   * @dev Not sure we actually need the the struct variable playerId\n   * but I've included it for future reference.\n   */\n  function newPlayer() internal{\n    require(player[msg.sender].isPlayer == false, 'address already registered as player');\n    player[msg.sender] = Player(msg.sender, playerCount, 0, 0, true);\n    emit NewPlayer(msg.sender,playerCount);\n    playerCount++;\n  }\n\n}\n\ncontract TestPlayer is GamePlayer{\n\n  uint public _playerCount;\n  bool public _registeredPlayer;\n  constructor () public {\n    _playerCount = 0;\n    _registeredPlayer = false;\n\n  }\n  function _newPlayer() public{\n    if(player[msg.sender].isPlayer == false){\n      player[msg.sender] = Player(msg.sender, playerCount, 0, 0, true);\n      emit NewPlayer(msg.sender,playerCount);\n      _playerCount++;\n    } else {\n      _registeredPlayer = true;\n    }\n  }\n\n  function getCounter() public view returns(uint){\n    return _playerCount;\n  }\n\n    function isPlayer() public view returns(bool){\n    return _registeredPlayer;\n  }\n}",
  "sourcePath": "/home/moses/Desktop/Lucky Ducky/contracts/Player.sol",
  "compiler": {
    "name": "solc",
    "version": "0.6.6+commit.6c089d02.Emscripten.clang"
  },
  "schemaVersion": "3.3.3",
  "updatedAt": "2021-06-18T20:35:52.760Z",
  "devdoc": {
    "methods": {}
  },
  "userdoc": {
    "methods": {}
  }
}